S0180000656C656374726F6E69635F636C6F636B2E7372656379
S113000045C0000061C000005FC000005DC000008A
S11300105BC000001DC7000080C7000055C0000081
S113002053C0000055C600004FC000004DC0000082
S11300304BC0000049C0000047C0000045C000009C
S113004043C0000041C00000A1C400003DC0000046
S11300503BC0000039C0000037C0000035C00000BC
S113006033C0000031C000002FC000002DC00000CC
S11300702BC0000029C0000027C0000025C00000DC
S113008023C0000021C000001FC0000011241FBEB7
S1130090CFEFD0E1DEBFCDBF1BE0A0E0B1E0E6EFE3
S11300A0F3E400E00BBF02C007900D92A43BB1073C
S11300B0D9F72FE0A4EBBBE001C01D92A232B20736
S11300C0E1F703D00C94F9219BCF78940E94B11EE0
S11300D00E942B150E94AE14FDCFCF93C82F2DD5AF
S11300E08C2F53D5CF910895CF93C82F26D58C2F1D
S11300F065D5CF9108950F931F93CF93DF938B0111
S1130100D42F76D5C0E006C0F801EC0FF11D808134
S11301106FD5CF5FCD17C0F3CFD5DF91CF911F91AE
S11301200F910895CF93DF93EC01A6D58883C4D5AE
S1130130DF91CF910895CF93DF931F92CDB7DEB7B0
S113014080E189838AE5C9DF41E0BE016F5F7F4FAB
S113015081E0D1DF0F90DF91CF910895CF93DF93AA
S113016000D000D0CDB7DEB78AE5B7DF40E060E06D
S113017070E082E0C0DF8AE5B7DF5ED589835CD5B5
S11301808A835AD58B8378D58C8396D5898190E0E0
S1130190982F88272A81822BA0E0B0E08093B80BA7
S11301A09093B90BA093BA0BB093BB0B8B8190E0E7
S11301B0982F88272C81822BA0E0B0E08093B40B89
S11301C09093B50BA093B60BB093B70B4091B40BBF
S11301D05091B50B6091B60B7091B70B8091B80B31
S11301E09091B90BA091BA0BB091BB0B7F936F9315
S11301F05F934F93BF93AF939F938F938BE298E05A
S11302009F938F930E94341F0FB6F894DEBF0FBEE6
S1130210CDBF0F900F900F900F90DF91CF91089565
S1130220CF93DF931F92CDB7DEB719828AE555DFEE
S113023040E060E070E080E05EDF8AE555DFCE01FB
S1130240019670DF89811F928F9383E498E09F93D6
S11302508F930E94341F89810F900F900F900F90FD
S11302600F90DF91CF910895CF93DF9300D000D00A
S1130270CDB7DEB781E190E0A0E0B0E095EEA2E773
S1130280BAE889839A83AB83BC838AE526DF44E09A
S1130290BE016F5F7F4F8FEF2EDF0F900F900F9097
S11302A00F90DF91CF9108958AE517DF40E060E079
S11302B070E084EF20CF0895CF93DF931F92CDB7E2
S11302C0DEB719828AE509DF40E060E070E080E291
S11302D012DF8AE509DFCE01019624DF89810F90C0
S11302E0DF91CF91089584E690E0F2D32FEF89EF68
S11302F090E0215080409040E1F700C00000B4DF5E
S11303002FEF81EE94E0215080409040E1F700C04F
S11303100000D2DF813809F03BC02FEF80E792E084
S1130320215080409040E1F700C0000085E698E04D
S11303309F938F930E94341F73DF0F900F9084FF5D
S113034027C080E798E09F938F930E94341FACDF0F
S11303502FEF80E792E0215080409040E1F700C009
S113036000005EDF0F900F90882394F48FE798E0ED
S11303709F938F930E94341FDEDE2FEF80E792E07D
S1130380215080409040E1F700C000000F900F9092
S113039008950F931F93CF938C01C0E003C00E9474
S11303A0951ECF5FF801EC0FF11D80818111F7CF0D
S11303B08DE00E94951E8AE00E94951E1F930F9364
S11303C087E898E09F938F930E94341F0F900F90BB
S11303D00F900F90CF911F910F910895CF92DF92BC
S11303E0EF92FF921F93CF93DF9387E998E09F9357
S11303F08F930E94341F8FE08093010F84E6E2ED17
S1130400FDE0DF011D928A95E9F71092C60B109268
S1130410CE0B1092CD0B1092CC0B0F900F9010E0DE
S113042041C01092C50B88EC91E0B3DF0F2EFDEFB5
S1130430CF2EDD24DA94FFE2EF2EF12CF02D06C04E
S1130440B1E0CB1AD108E108F108C9F06CEA78E010
S113045082ED9DE00E941A1FEC01892B89F36FEA5B
S113046078E082ED9DE00E941A1F892B49F7E2EDA6
S1130470FDE001900020E9F7EF50FE4009F7CD2B95
S113048081F06FEA78E082ED9DE00E941A1F892BCB
S113049041F4E2EDFDE001900020E9F7EF50FE4069
S11304A021F01F5F1A3009F0BCCF8091CE0B8093EE
S11304B0C10B8091CC0B9091CD0B9093C30B809387
S11304C0C20B8091C60B8F5F8093C60B10E051C0A6
S11304D084E6E7E3FEE0DF011D928A95E9F71092D6
S11304E0C50B88EC91E055DF0F2EFDEFCF2EDD24F8
S11304F0DA94FFE2EF2EF12CF02D06C0B1E0CB1A16
S1130500D108E108F108C9F06CEA78E087E39EE0DD
S11305100E941A1FEC01892B89F36FEA78E087E3C4
S11305209EE00E941A1F892B49F7E7E3FEE0019041
S11305300020E9F7E457FE4009F7CD2BC9F06FEA34
S113054078E087E39EE00E941A1F892B89F4E7E391
S1130550FEE001900020E9F7E457FE4049F467E328
S11305607EE082ED9DE00E94111F892B11F004C0F2
S11305701F5F1A3009F0ACCF8091CE0B8093BE0B75
S11305808091CC0B9091CD0B9093C00B8093BF0BBB
S11305901A3011F41092010F8091010F882379F120
S11305A08091BE0B48EE53E0849F9001859F300DEF
S11305B011248091BF0B9091C00B820F931F209147
S11305C0C10B249FB001259F700D11242091C20BF3
S11305D03091C30B260F371F821B930B9093BD0BD7
S11305E08093BC0B8091BC0B9091BD0B9093CD0B71
S11305F08093CC0B1092CE0B81E08093010F82ED9F
S11306009DE09F938F93C4EBD8E0DF93CF930E9438
S1130610341F87E39EE09F938F93DF93CF930E94D1
S1130620341F8091BC0B9091BD0B9F938F9387EBEC
S113063098E09F938F930E94341F8091010FADB770
S1130640BEB71C960FB6F894BEBF0FBEADBFDF9108
S1130650CF911F91FF90EF90DF90CF9008956CEAB7
S113066078E00E941A1F892B11F081E0089580E040
S11306700895CF92DF92EF92FF92CF93C0E044C0EF
S11306801092C70B8091C80B22E3829FC0011124F2
S113069080509F4F7EDE0F2EFDEFCF2EDD24DA94A7
S11306A0FFE2EF2EF12CF02D08C081E0C81AD1082A
S11306B0E108F10811F4CF5F0BC08091C80B25E667
S11306C0829FC00111248752944FC9DF882369F3A4
S11306D08091C80B25E6829FC00111248752944F54
S11306E0BEDF813029F48091C80B8F5F8093C80BE3
S11306F0C43151F487EC98E09F938F930E94341F88
S11307000F900F9080E006C08091C80B853008F4EC
S1130710B7CF81E0CF91FF90EF90DF90CF90089515
S1130720CF92DF92EF92FF92CF93DF938EE080938C
S1130730010F84E6ECE9FEE0DF011D928A95E9F7FA
S1130740D0E038C01092C40B8BED98E022DE0F2E5F
S1130750FEEFCF2EDD24DA94FFE1EF2EF12CF02D05
S113076008C0B1E0CB1AD108E108F10811F4DF5F49
S11307700EC08CE99EE073DFC82F882391F36BEDE4
S113078078E08CE99EE00E941A1F892B51F3C13056
S113079061F46BED78E08CE99EE00E941A1F892BCE
S11307A021F081E08093010F08C0DA3019F410922F
S11307B0010F03C0DA3009F0C5CF86EE98E09F93AD
S11307C08F930E94341F8CE99EE09F938F9384EB58
S11307D098E09F938F930E94341F8091010F0F9094
S11307E00F900F900F900F900F90DF91CF91FF908B
S11307F0EF90DF90CF900895CF93DF931092C80BC2
S11308001092C70B0E948E1E34DF813009F04DC058
S11308108FE08093010FC0E0D0E015C025E62C9F47
S1130820C0012D9F900D11248752944F9F938F9355
S113083084EB98E09F938F930E94341F21960F902E
S11308400F900F900F90C730D10544F38EEF9FEFB8
S1130850AFE1B0E002C0DB01CA01AC01BD0141500F
S1130860510961097109892B8A2B8B2BA1F7B6DDFC
S1130870C82F813081F487E39EE09F938F9384EBAC
S113088098E09F938F930E94341F4ADF0F900F903C
S11308900F900F900BC08BEF98E09F938F930E9463
S11308A0341F0F900F90C0E001C0C0E08C2FDF9187
S11308B0CF910895CF92DF92EF92FF92CF93DF937F
S11308C08EE08093010F84E6ECE9FEE0DF011D92E7
S11308D08A95E9F7D0E038C01092C40B82E199E020
S11308E058DD0F2EFEEFCF2EDD24DA94FFE1EF2E3C
S11308F0F12CF02D08C0B1E0CB1AD108E108F108C1
S113090011F4DF5F0EC08CE99EE0A9DEC82F8823B6
S113091091F362E179E08CE99EE00E941A1F892B31
S113092051F3C13061F462E179E08CE99EE00E9408
S11309301A1F892B21F081E08093010F08C0DA305F
S113094019F41092010F03C0DA3009F0C5CF86EE16
S113095098E09F938F930E94341F8CE99EE09F93AD
S11309608F9384EB98E09F938F930E94341F809120
S1130970010F0F900F900F900F900F900F90DF9139
S1130980CF91FF90EF90DF90CF9008951F920F9238
S11309900FB60F9211240BB60F920F931F932F9340
S11309A03F934F935F936F937F938F939F93AF93F3
S11309B0BF93CF93DF93EF93FF938091C80B809104
S11309C0C80B853020F50091C80B10E0C091C70B0F
S11309D081E08C0F8093C70BD0E00E949B1E95E6AC
S11309E0909F9001919F300D11242752344FC20FD4
S11309F0D31F8883E091C80B8091C70B9E9FF001A1
S1130A001124E752F44FE80FF11D108243C0809186
S1130A10010F8F3021F50091C60B10E0C091C50B7A
S1130A2081E08C0F8093C50BD0E00E949B1E95E65D
S1130A30909F9001919F300D11242E52324FC20F7E
S1130A40D31F8883E091C60B8091C50B9E9FF00154
S1130A501124EE52F24FE80FF11D10821BC0809159
S1130A60010F8E3099F4C091C40B81E08C0F8093F8
S1130A70C40BD0E00E949B1EC456D14F8883E091E2
S1130A80C40BF0E0E456F14F108204C00E949B1E98
S1130A900E94471FFF91EF91DF91CF91BF91AF91DA
S1130AA09F918F917F916F915F914F913F912F9182
S1130AB01F910F910F900BBE0F900FBE0F901F90C0
S1130AC0189512B880E383B99AE09ABF89BF089554
S1130AD0BC01613981E0780770F580E89EE30E94EB
S1130AE0C21ECB01A0E0B0E04097A109B109B695C0
S1130AF0A795979587959C01245031092C3F334045
S1130B0058F4E1E7F0E02081208396958795969547
S1130B108795809370000BC08F3F910541F038F0AA
S1130B20E1E7F0E02081216020839093700083E06E
S1130B3081BB81E0089580E0089584EA8093740085
S1130B40809174008823E4F780917100887F883055
S1130B5049F48DE199E09F938F930E94341F0F9085
S1130B600F90089587E399E09F938F930E94341F19
S1130B700F900F9008958093730084EC8093740019
S1130B80809174008823E4F70895880FF4DF80913E
S1130B907100887F883149F48EE499E09F938F93A4
S1130BA00E94341F0F900F90089588E799E09F9357
S1130BB08F930E94341F0F900F900895880F8F5FBA
S1130BC0DADF80917100887F803449F48FE999E0FD
S1130BD09F938F930E94341F0F900F90089589EC78
S1130BE099E09F938F930E94341F0F900F90089564
S1130BF0C2DF80917100887F883279F4809171001E
S1130C001F928F9380EF99E09F938F930E94341FDC
S1130C100F900F900F900F900895809171001F9284
S1130C208F9380E29AE09F938F930E94341F0F90DA
S1130C300F900F900F90089584EC8093740080912E
S1130C4074008823E4F780917100887F803549F42B
S1130C508DE49AE09F938F930E94341F0F900F901E
S1130C6008C083E79AE09F938F930E94341F0F90EC
S1130C700F9080917300089584E8809374008091AC
S1130C8074008823E4F780917100887F883549F4E3
S1130C9086E99AE09F938F930E94341F0F900F90E0
S1130CA008C08DEB9AE09F938F930E94341F0F909E
S1130CB00F9080917300089584E98093740081EE0D
S1130CC09AE09F938F930E94341F0F900F90089582
S1130CD01F920F920FB60F9211240BB60F922F93FF
S1130CE03F934F935F936F937F938F939F93AF93B0
S1130CF0BF93EF93FF938091CC0B9091CD0B019612
S1130D009093CD0B8093CC0B8091CC0B9091CD0B19
S1130D10883E934050F18091CE0B8F5F8093CE0B31
S1130D204091CC0B5091CD0B9A0136952795369571
S1130D30279536952795A5ECB0E20E94F81E92956A
S1130D4082958F7089279F70892768EE73E0869F4C
S1130D509001879F300D969F300D1124CA01821B8C
S1130D60930B9093CD0B8093CC0B8091CE0B8C3353
S1130D7009F05BC08091CF0B8F5F8093CF0B1092F3
S1130D80CE0B8091CF0B8C33D1F48091D00B8F5F3D
S1130D908093D00B9091CF0B89E8989F812D1124DB
S1130DA08295869587702CE3829F901911249093E5
S1130DB0CF0B8091D00B883111F41092D00B90910D
S1130DC0CF0B8DEC989F912D112496959695969521
S1130DD0E2E0FFE092833091CF0B389F912D1124F4
S1130DE0969596959695990F292F220F220F920F7B
S1130DF0391B33839091D00B989F912D1124969594
S1130E009695969594832091D00B289F812D11243B
S1130E10869586958695880F982F990F990F890F37
S1130E20281B258381E08093FA01FF91EF91BF9104
S1130E30AF919F918F917F916F915F914F913F916E
S1130E402F910F900BBE0F900FBE0F901F9018950F
S1130E501F920F920FB60F9211240BB60F922F937D
S1130E603F934F935F936F937F938F939F93AF932E
S1130E70BF93EF93FF930C993DC02FEF81EE94E065
S1130E80215080409040E1F700C000000C9932C02E
S1130E908091CC0B9091CD0B8C599F4F9093CD0B9F
S1130EA08093CC0B8091CA0B8F5F8093CA0B909177
S1130EB0CA0B8BEA989F812D11248695282F220F27
S1130EC0820F981B9093CA0B8091CA0B8093CB0B13
S1130ED081E08093C90B8091CB0B811103C081E029
S1130EE08093FA0183E19BE09F938F930E94341FC8
S1130EF00F900F90FF91EF91BF91AF919F918F91C0
S1130F007F916F915F914F913F912F910F900BBE05
S1130F100F900FBE0F901F9018951F920F920FB64F
S1130F200F9211240BB60F922F933F934F935F931D
S1130F306F937F938F939F93AF93BF93EF93FF939D
S1130F400D9923C02FEF81EE94E021508040904012
S1130F50E1F700C000000D9918C01092D00B109258
S1130F60CF0B1092CE0B1092CD0B1092CC0B8FE0C6
S1130F708093010F81E08093FA0184E29BE09F93C8
S1130F808F930E94341F0F900F90FF91EF91BF91A8
S1130F90AF919F918F917F916F915F914F913F910D
S1130FA02F910F900BBE0F900FBE0F901F901895AE
S1130FB0FC0110821182128213821482158216821D
S1130FC01782108611861286138614861586089554
S1130FD01F93CF93DF93EC0110E011C0612F70E0F9
S1130FE0660F771F660F771F695E7D4FCE010E94E3
S1130FF01A1F892B19F010930B0F03C01F5F1C30AD
S113100068F310E013C0612F70E0660F771F660F5E
S1131010771F65507E4FCE010E941A1F892B29F03D
S11310201093080F20E030E018C01F5F173058F30A
S1131030F9CFFE01E80FF91F808190E0C0970A976D
S113104048F4832F90E040814053FC01E05FF04F6F
S113105040833F5F3C3069F02F5F822F90E0FE01B8
S113106001900020E9F73197EC1BFD0B8E179F07C9
S113107000F3A0E1BFE016968C91169790E09C01D6
S1131080220F331F880F991F880F991F880F991FEC
S1131090820F931F17962C911797820F911D909191
S11310A0CE0B890F8093CE0B14968C91149790E0FD
S11310B09C01220F331F880F991F880F991F880FD7
S11310C0991F820F931F15962C911597820F911DCE
S11310D09091CF0B890F8093CF0B12968C9112971E
S11310E090E09C01220F331F880F991F880F991FCE
S11310F0880F991F820F931F13962C911397820FB9
S1131100911D9091D00B890F8093D00B8C91E2E0CC
S1131110FFE0878311968C91119780879091D00B73
S11311208DEC989F912D1124969596959695948380
S11311303091D00B389F912D1124969596959695C4
S1131140990F292F220F220F920F391B358390916B
S1131150CF0B989F912D11249695969596959283F1
S11311603091CF0B389F912D112496959695969595
S1131170990F292F220F220F920F391B338390913D
S1131180CE0B989F912D11249695969596959083C4
S11311902091CE0B289F812D1124869586958695C6
S11311A0880F982F990F990F890F281B2183189660
S11311B08C911897828719968C91199783871A9620
S11311C08C911A9784871B968C918587DF91CF9198
S11311D01F9108956F927F928F929F92AF92BF92C8
S11311E0CF92DF92EF92FF920F93CF93DF933C0164
S11311F0EA018091D00B8C3020F15B0163010F2E4A
S1131200F9E6EF2EF6E0FF2EF02D02E02FEF3FEF90
S113121043E050E060E070E0CB010E948D17CC0EFB
S1131220DD1E0F2EF5E4EF2EF6E0FF2EF02D2FEF4E
S11312303FEF43E050E060E070E0CB010E948D1787
S113124027C08091D00B8C3018F55B0163010F2E01
S1131250F1EBEF2EF6E0FF2EF02D02E02FEF3FEF43
S113126043E050E060E070E0CB010E948D17CC0EAB
S1131270DD1E0F2EFDE8EF2EF6E0FF2EF02D2FEFF2
S11312803FEF43E050E060E070E0CB010E948D1737
S1131290DF91CF910F91FF90EF90DF90CF90BF90AF
S11312A0AF909F908F907F906F9008952F923F9270
S11312B04F925F926F927F928F929F92AF92BF9262
S11312C0CF92DF92EF92FF920F93CF93DF932C0193
S11312D03B01EA018091D00B8A3040F54B01520169
S11312E0C12CD12C76010AE02FEF3FEF43E050E010
S11312F060E070E0CB010E94ED16E091070FAC0EA8
S1131300BD1EF0E0EE0FFF1FEE0FFF1FE35CF84F72
S1131310C080D180E280F3802FEF3FEF43E050E0C4
S113132060E070E0CB010E94ED16E8C08091D00B24
S11313308A30F0F18091D00B8D30D0F50F2EF2E091
S11313402F2EFFE03F2EF02DD1011496EC91F0E00A
S1131350EE0FFF1FEE0FFF1FE35CF84FC080D1803C
S1131360E280F3804B0152010AE02FEF3FEF43E0AC
S113137050E060E070E0CB010E94ED16D1011596BB
S1131380EC91AC0EBD1EF0E0EE0FFF1FEE0FFF1F41
S1131390E35CF84FC080D180E280F3802FEF3FEF11
S11313A043E050E060E070E0CB010E94ED16A6C07F
S11313B08091D00B8D3068F18091D00B843148F549
S11313C043015201C12CD12C76010AE02FEF3FEFEB
S11313D043E050E060E070E0CB010E94ED16E09144
S11313E0070FF0E03297AC0EBD1EEE0FFF1FEE0F9D
S11313F0FF1FE35CF84FC080D180E280F3802FEFC1
S11314003FEF43E050E060E070E0CB010E94ED1656
S113141075C08091D00B843168F18091D00B8631F6
S113142048F543015201C12CD12C76010AE02FEF7B
S11314303FEF43E050E060E070E0CB010E94ED1626
S1131440E091070FF0E03896AC0EBD1EEE0FFF1FC3
S1131450EE0FFF1FE35CF84FC080D180E280F38081
S11314602FEF3FEF43E050E060E070E0CB010E94DB
S1131470ED1644C08091D00B863108F43FC08091B2
S1131480D00B8831D8F50F2EF2E02F2EFFE03F2E3F
S1131490F02DD1011496EC91F0E03197EE0FFF1F7F
S11314A0EE0FFF1FE35CF84FC080D180E280F38031
S11314B0430152010AE02FEF3FEF43E050E060E0C8
S11314C070E0CB010E94ED16D1011596EC91F0E08D
S11314D03297AC0EBD1EEE0FFF1FEE0FFF1FE35C35
S11314E0F84FC080D180E280F3802FEF3FEF43E0DC
S11314F050E060E070E0CB010E94ED16DF91CF91E7
S11315000F91FF90EF90DF90CF90BF90AF909F909E
S11315108F907F906F905F904F903F902F900895A1
S11315202F923F924F925F926F927F928F929F92EF
S1131530AF92BF92CF92DF92EF92FF920F93CF932D
S1131540DF932A01C2E0DFE0EA81F0E0EE0FFF1F43
S1131550EE0FFF1FE35CF84FC080D180E280F38080
S11315604B015C010AE02FEF3FEF43E050E060E005
S113157070E0CB010E94ED16EB81A40CB51CF0E0E9
S1131580EE0FFF1FEE0FFF1FE35CF84FC080D1800A
S1131590E280F3802FEF3FEF43E050E060E070E043
S11315A0CB010E94ED16DF91CF910F91FF90EF9048
S11315B0DF90CF90BF90AF909F908F907F906F906F
S11315C05F904F903F902F9008952F923F924F92AB
S11315D05F926F927F928F929F92AF92BF92CF92BF
S11315E0DF92EF92FF920F93CF93DF93EC013B01D5
S11315F02A018091090F882309F44FC00F2EF2E0CD
S11316002F2EFFE03F2EF02DD1011796EC91F0E044
S1131610EE0FFF1FEE0FFF1FE35CF84FC080D18079
S1131620E280F3804B015E0105E02FEF3FEF43E0E2
S113163050E060E070E0CB010E94ED16C40DD51DB2
S1131640D1011896EC91F0E0EE0FFF1FEE0FFF1F93
S1131650E35CF84FC080D180E280F3805E012FEF1D
S11316603FEF43E050E060E070E0CB010E94ED16F4
S11316706201CC0EDD1E53010F2EFDEDEF2EF4E0C2
S1131680FF2EF02D02E02FEF3FEF43E050E060E04B
S113169070E0CB010E948D1740C08091090F811129
S11316A03CC04B015E01C12CD12C760105E02FEF2B
S11316B03FEF43E050E060E070E0CB010E94ED16A4
S11316C0C40DD51DE0910A0FF0E0EE0FFF1FEE0FE1
S11316D0FF1FE35CF84FC080D180E280F3805E019D
S11316E02FEF3FEF43E050E060E070E0CB010E9459
S11316F0ED166201CC0EDD1E53010F2EFDEDEF2E13
S1131700F4E0FF2EF02D02E02FEF3FEF43E050E036
S113171060E070E0CB010E948D17DF91CF910F91B3
S1131720FF90EF90DF90CF90BF90AF909F908F90FD
S11317307F906F905F904F903F902F9008956F929D
S11317407F928F929F92AF92BF92CF92DF92EF924D
S1131750FF920F93CF93DF93EC013A018091080F2E
S11317608530D1F5E091080FF0E0EE0FFF1FE95747
S1131770FB4FE080F1805B016E0102E02FE330E07B
S113178040E050E060E070E0CB010E948D17C60D90
S1131790D71D6E010F2EF9EBEF2EF4E0FF2EF02D86
S11317A02FE330E040E050E060E070E0CB010E94C5
S11317B08D176301CC0EDD1E0F2EF5E9EF2EF4E03C
S11317C0FF2EF02D2FE330E040E050E060E070E0C9
S11317D0CB010E948D1777C08091080F8630D1F518
S11317E0E091080FF0E0EE0FFF1FE957FB4FE08098
S11317F0F1805B016E0102E020E030EF43E050E055
S113180060E070E0CB010E948D17C60DD71D6E01FC
S11318100F2EF9EBEF2EF4E0FF2EF02D20E030EF49
S113182043E050E060E070E0CB010E948D1763015B
S1131830CC0EDD1E0F2EF5E9EF2EF4E0FF2EF02D79
S113184020E030EF43E050E060E070E0CB010E9424
S11318508D1739C0E091080FF0E0EE0FFF1FE95734
S1131860FB4FE080F1805B016E0102E020EC3FE081
S113187040E050E060E070E0CB010E948D17C60D9F
S1131880D71D6E010F2EF9EBEF2EF4E0FF2EF02D95
S113189020EC3FE040E050E060E070E0CB010E94CB
S11318A08D176301CC0EDD1E0F2EF5E9EF2EF4E04B
S11318B0FF2EF02D20EC3FE040E050E060E070E0CF
S11318C0CB010E948D17DF91CF910F91FF90EF9084
S11318D0DF90CF90BF90AF909F908F907F906F904C
S11318E008952F923F924F925F926F927F928F92C0
S11318F09F92AF92BF92CF92DF92EF92FF920F939B
S11319001F93CF93DF93EC013B012A0180910B0FCE
S11319108A30F0F54B015E01C12CD12C760105E033
S11319202FEF3FEF43E050E060E070E0CB010E9416
S1131930ED16C40DD51DE0910B0FF0E03196EE0FBE
S1131940FF1FEE0FFF1FE35CF84FC080D180E280E1
S1131950F3805E012FEF3FEF43E050E060E070E082
S1131960CB010E94ED166201CC0EDD1E53010F2E39
S1131970F1E0EF2EF5E0FF2EF02D02E02FEF3FEF28
S113198043E050E060E070E0CB010E948D1768C036
S113199080910B0F8A3008F463C00F2EF2E02F2ED3
S11319A0FFE03F2EF02DD1011996EC911DECE19F43
S11319B0E12D1124E695E695E695F0E03196EE0FDB
S11319C0FF1FEE0FFF1FE35CF84FC080D180E28061
S11319D0F3804B015E0105E02FEF3FEF43E050E061
S11319E060E070E0CB010E94ED16C40DD51DD1015D
S11319F01996EC91E19F112D1124169516951695C3
S1131A00110F812F880F880F180FE11BF0E031961A
S1131A10EE0FFF1FEE0FFF1FE35CF84FC080D18075
S1131A20E280F3805E012FEF3FEF43E050E060E09F
S1131A3070E0CB010E94ED166201CC0EDD1E530155
S1131A400F2EF1E0EF2EF5E0FF2EF02D02E02FEF48
S1131A503FEF43E050E060E070E0CB010E948D175F
S1131A60DF91CF911F910F91FF90EF90DF90CF9076
S1131A70BF90AF909F908F907F906F905F904F90AA
S1131A803F902F9008952F923F924F925F926F92C2
S1131A907F928F929F92AF92BF92CF92DF92EF92FA
S1131AA0FF920F93CF93DF932C011B01EA010F2EBA
S1131AB0F2E06F2EFFE07F2EF02DD3011A96EC9109
S1131AC0F0E0EE0FFF1FEE0FFF1FE35CF84FC08046
S1131AD0D180E280F3804B015C0105E02FEF3FEF02
S1131AE043E050E060E070E0CB010E94ED164C0E44
S1131AF05D1ED3011B96EC91F0E0EE0FFF1FEE0F7D
S1131B00FF1FE35CF84FC080D180E280F380520174
S1131B102FEF3FEF43E050E060E070E0CB010E9424
S1131B20ED164C0E5D1ED3011C96EC91F0E0EE0F09
S1131B30FF1FEE0FFF1FE35CF84FC080D180E280EF
S1131B40F38052012FEF3FEF43E050E060E070E09C
S1131B50CB010E94ED164C0E5D1ED3011D96EC9137
S1131B60F0E0EE0FFF1FEE0FFF1FE35CF84FC080A5
S1131B70D180E280F38052012FEF3FEF43E050E049
S1131B8060E070E0CB010E94ED166E01C40CD51C20
S1131B9051010F2EF5E2EF2EF5E0FF2EF02D02E0BD
S1131BA02FEF3FEF43E050E060E070E0CB010E9494
S1131BB08D17DF91CF910F91FF90EF90DF90CF9031
S1131BC0BF90AF909F908F907F906F905F904F9059
S1131BD03F902F9008958F929F92AF92BF92CF9291
S1131BE0DF92EF92FF920F934EE150E06FE070E0CE
S1131BF08AEF90E0EFDA4CE350E06CE370E08EE1C2
S1131C0090E054DBC0906507D0906607E0906707CA
S1131C10F09068070F2EFCE38F2E912CF02D0F2EE1
S1131C20FCE8AF2EB12CF02D0AE02FEF3FEF43E09C
S1131C3050E060E070E0CB010E94ED164CE350E010
S1131C406CE370E08EEB90E06BDC4EE150E066E913
S1131C5070E080EA90E017DF4EE150E068EC70E05D
S1131C6084E190E03EDE4EE150E068EC70E088E70D
S1131C7090E0ABDC4EE150E068EC70E08CED90E07D
S1131C805EDD0F91FF90EF90DF90CF90BF90AF900B
S1131C909F908F9008957F928F929F92AF92BF9260
S1131CA0CF92DF92EF92FF920F931F93CF93DF9324
S1131CB08091D50B9091D60BA091D70BB091D80BF6
S1131CC084369105A105B10508F071C18091D10B4D
S1131CD09091D20BA091D30BB091D40B8436910583
S1131CE0A105B10508F063C16091D50B7091D60BC5
S1131CF08091D70B9091D80B0F2EFAE0CF2ED12CD8
S1131D00E12CF12CF02DA70196010E94D61E722E13
S1131D106091D50B7091D60B8091D70B9091D80B15
S1131D20A70196010E94D61E162F6091D10B7091C7
S1131D30D20B8091D30B9091D40BA70196010E94F2
S1131D40D61ED22F6091D10B7091D20B8091D30B00
S1131D509091D40BA70196010E94D61EC62F0F2E78
S1131D60F2E3AF2EB12CF02D0F2EF4E1CF2ED12CB7
S1131D70F02D0F2EF3E4EF2EF3E0FF2EF02D03E011
S1131D802FEF3FEF43E050E060E070E0CB010E94B2
S1131D908D170F2EFCE3CF2ED12CF02D0F2EFFE14B
S1131DA0EF2EF3E0FF2EF02D2FEF3FEF43E050E056
S1131DB060E070E0CB010E948D17C0906507D09061
S1131DC06607E0906707F09068070F2EF2E38F2E06
S1131DD0912CF02D0F2EFEE6AF2EB12CF02D09E044
S1131DE02FEF3FEF43E050E060E070E0CB01F5D728
S1131DF0E72DF0E0EE0FFF1FEE0FFF1FE35CF84F3F
S1131E00C080D180E280F3800F2EF0EAAF2EB12C97
S1131E10F02D2FEF3FEF43E050E060E070E0CB01A6
S1131E20DCD7E12FF0E0EE0FFF1FEE0FFF1FE35CA6
S1131E30F84FC080D180E280F3800F2EF2EDAF2EF8
S1131E40B12CF02D2FEF3FEF43E050E060E070E065
S1131E50CB01C3D70F2EF2E3AF2EB12CF02D689433
S1131E60CC24C2F8DD24D3940F2EF3EBEF2EF2E052
S1131E70FF2EF02D03E02FEF3FEF43E050E060E052
S1131E8070E0CB010E948D170F2EF6E9AF2EB12C16
S1131E90F02D0F2EF4E1CF2ED12CF02D0F2EFBEFD1
S1131EA0EF2EF2E0FF2EF02D2FEF3FEF43E050E056
S1131EB060E070E0CB010E948D170F2EFCE3CF2E63
S1131EC0D12CF02D0F2EF7EDEF2EF2E0FF2EF02D9A
S1131ED02FEF3FEF43E050E060E070E0CB010E9461
S1131EE08D17C0906507D0906607E0906707F09063
S1131EF068070F2EF6E98F2E912CF02D0F2EFEE69B
S1131F00AF2EB12CF02D09E02FEF3FEF43E050E06E
S1131F1060E070E0CB0161D7ED2FF0E0EE0FFF1F22
S1131F20EE0FFF1FE35CF84FC080D180E280F380A6
S1131F300F2EF0EAAF2EB12CF02D2FEF3FEF43E040
S1131F4050E060E070E0CB0148D7EC2FF0E0EE0FFA
S1131F50FF1FEE0FFF1FE35CF84FC080D180E280CB
S1131F60F3800F2EF2EDAF2EB12CF02D2FEF3FEFBB
S1131F7043E050E060E070E0CB012FD70F2EF6E98C
S1131F80AF2EB12CF02D6894CC24C2F8DD24D39468
S1131F900F2EF7E4EF2EF2E0FF2EF02D03E02FEFEB
S1131FA03FEF43E050E060E070E0CB01B6D7DF9153
S1131FB0CF911F910F91FF90EF90DF90CF90BF9042
S1131FC0AF909F908F907F9008952F923F924F9261
S1131FD05F926F927F928F929F92AF92BF92CF92B5
S1131FE0DF92EF92FF920F931F93CF93DF9300D072
S1131FF000D01F92CDB7DEB76091B80B7091B90BCA
S11320008091BA0B9091BB0BC090B40BD090B50BE0
S1132010E090B60BF090B70B0F2EF8EE4F2EF3E0D6
S11320205F2E612C712CF02DA30192010E94D61E0B
S1132030322E0F2EF4E68F2E912CA12CB12CF02DE4
S1132040A50194010E94D61E29832AE030E040E0D5
S113205050E00E94D61E2A83162FC701B601A301A1
S113206092010E94D61E2B83A50194010E94D61EC4
S1132070722E2AE030E040E050E00E94D61E222E6C
S1132080662E0F2EF8E2AF2EB12CF02D0F2EFAE0B3
S1132090CF2ED12CF02D0F2EF3E6EF2EF4E0FF2EF1
S11320A0F02D04E02FEF3FEF43E050E060E070E0FC
S11320B0CB0133D70F2EFBE4CF2ED12CF02D0F2ED6
S11320C0FFE3EF2EF4E0FF2EF02D2FEF3FEF43E080
S11320D050E060E070E0CB0120D7C0906507D0905D
S11320E06607E0906707F09068070F2EFDE28F2ED9
S11320F0912CF02D0F2EFCE8AF2EB12CF02D09E021
S11321002FEF3FEF43E050E060E070E0CB0165D695
S1132110C090DD06D090DE06E090DF06F090E00689
S11321200F2EF6E98F2E912CF02D0F2EF4E1AF2E09
S1132130B12CF02D06E02FEF3FEF43E050E060E0DC
S113214070E0CB014AD6C0900D07D0900E07E09006
S11321500F07F09010070F2EFCE3AF2EB12CF02DDB
S11321602FEF3FEF43E050E060E070E0CB0135D665
S1132170C0904507D0904607E0904707F090480785
S11321800F2EFAEA8F2E912CF02D0F2EF4E6AF2E9F
S1132190B12CF02D03E02FEF3FEF43E050E060E07F
S11321A070E0CB011AD6C0902107D0902207E090AE
S11321B02307F09024070F2EF8EC8F2E912CF02D8E
S11321C0A12CB12C05E02FEF3FEF43E050E060E09D
S11321D070E0CB0102D6C0902907D0902A07E09086
S11321E02B07F0902C070F2EFEE1AF2EB12CF02D13
S11321F02FEF3FEF43E050E060E070E0CB01EDD51E
S1132200C0900D07D0900E07E0900F07F0901007D4
S11322100F2EFCE3AF2EB12CF02D2FEF3FEF43E058
S113222050E060E070E0CB01D8D5C090DD06D090DE
S1132230DE06E090DF06F090E0060F2EFAE5AF2E02
S1132240B12CF02D2FEF3FEF43E050E060E070E061
S1132250CB01C3D58091B80B9091B90BA091BA0B67
S1132260B091BB0B803D9740A105B10568F4809106
S1132270B40B9091B50BA091B60BB091B70B843F02
S11322809140A105B10558F10F2EF8E2AF2EB12C03
S1132290F02D0F2EFEEBCF2ED12CF02D0F2EFBE1C7
S11322A0EF2EF4E0FF2EF02D04E020E030EF43E0C9
S11322B050E060E070E0CB0130D6CC24CA94D12C3D
S11322C00F2EF7EFEF2EF3E0FF2EF02D20E030EF8E
S11322D043E050E060E070E0CB011FD66FC0809116
S11322E0B80B9091B90BA091BA0BB091BB0B883E7F
S11322F09340A105B10558F10F2EF8E2AF2EB12C91
S1132300F02D0F2EFEEBCF2ED12CF02D0F2EF3ED52
S1132310EF2EF3E0FF2EF02D04E02FEF3FE042E03C
S113232050E060E070E0CB01F8D5CC24CA94D12C05
S11323300F2EFFEAEF2EF3E0FF2EF02D2FEF3FE0FC
S113234042E050E060E070E0CB01E7D537C0809117
S1132350B80B9091B90BA091BA0BB091BB0B883E0E
S11323609340A105B10550F50F2EF8E2AF2EB12C24
S1132370F02D0F2EFEEBCF2ED12CF02D0F2EFBE8DF
S1132380EF2EF3E0FF2EF02D04E020EC3FE040E0E0
S113239050E060E070E0CB01C0D5CC24CA94D12CCD
S11323A00F2EF7E6EF2EF3E0FF2EF02D20EC3FE0AA
S11323B040E050E060E070E0CB01AFD58091B80B15
S11323C09091B90BA091BA0BB091BB0B883E93408E
S11323D0A105B10508F46EC0E32DF0E0EE0FFF1F78
S11323E0EE0FFF1FE35CF84FC080D180E280F380E2
S11323F00F2EF6E98F2E912CF02D0F2EF8E7AF2E2D
S1132400B12CF02D06E02FEF3FEF43E050E060E009
S113241070E0CB01E2D42981E22FF0E0EE0FFF1F40
S1132420EE0FFF1FE35CF84FC080D180E280F380A1
S11324300F2EF0EAAF2EB12CF02D2FEF3FEF43E03B
S113244050E060E070E0CB01C8D49A81892F90E01D
S1132450880F991F880F991F835C984FFC01C080D7
S1132460D180E280F3800F2EF8ECAF2EB12CF02D4A
S11324702FEF3FEF43E050E060E070E0CB01ADD4DC
S1132480E12FF0E0EE0FFF1FEE0FFF1FE35CF84FAC
S1132490C080D180E280F3800F2EF0EFAF2EB12CFC
S11324A0F02D2FEF3FEF43E050E060E070E0CB0110
S11324B094D462C08091B80B9091B90BA091BA0BDF
S11324C0B091BB0B883E9340A105B10508F054C000
S11324D02981E22FF0E0EE0FFF1FEE0FFF1FE35CF8
S11324E0F84FC080D180E280F3800F2EF6E98F2E62
S11324F0912CF02D0F2EF0EAAF2EB12CF02D06E02A
S11325002FEF3FEF43E050E060E070E0CB0165D493
S11325109A81892F90E0880F991F880F991F835CF7
S1132520984FFC01C080D180E280F3800F2EF8EC3C
S1132530AF2EB12CF02D2FEF3FEF43E050E060E0E1
S113254070E0CB014AD4E12FF0E0EE0FFF1FEE0F55
S1132550FF1FE35CF84FC080D180E280F3800F2E30
S1132560F0EFAF2EB12CF02D2FEF3FEF43E050E012
S113257060E070E0CB0131D40F2EF6E9AF2EB12C20
S1132580F02D0F2EF8E1CF2EDD24D394F02D0F2E55
S1132590FFE8EF2EF2E0FF2EF02D02E02FEF3FEFE9
S11325A043E050E060E070E0CB01B7D48091B40B1D
S11325B09091B50BA091B60BB091B70B883E9340A8
S11325C0A105B10508F46CC02B81E22FF0E0EE0FF9
S11325D0FF1FEE0FFF1FE35CF84FC080D180E28045
S11325E0F3800F2EF8EC8F2E912CF02D0F2EF8E7A0
S11325F0AF2EB12CF02D06E020E030EF43E050E0A8
S113260060E070E0CB01E9D3E72DF0E0EE0FFF1FAF
S1132610EE0FFF1FE35CF84FC080D180E280F380AF
S11326200F2EF0EAAF2EB12CF02D20E030EF43E076
S113263050E060E070E0CB01D0D3E22DF0E0EE0F8B
S1132640FF1FEE0FFF1FE35CF84FC080D180E280D4
S1132650F3800F2EF8ECAF2EB12CF02D20E030EFEC
S113266043E050E060E070E0CB01B7D3E62DF0E04A
S1132670EE0FFF1FEE0FFF1FE35CF84FC080D18009
S1132680E280F3800F2EF0EFAF2EB12CF02D20E07E
S113269030EF43E050E060E070E0CB019ED32CC10A
S11326A08091B40B9091B50BA091B60BB091B70B80
S11326B084369105A105B10508F4B2C08091B40B2C
S11326C09091B50BA091B60BB091B70B843F91409C
S11326D0A105B10508F452C0E72DF0E0EE0FFF1F8D
S11326E0EE0FFF1FE35CF84FC080D180E280F380DF
S11326F00F2EF8EC8F2E912CF02D0F2EF0EAAF2E2A
S1132700B12CF02D06E020E030EF43E050E060E033
S113271070E0CB0162D3E22DF0E0EE0FFF1FEE0F6D
S1132720FF1FE35CF84FC080D180E280F3800F2E5E
S1132730F8ECAF2EB12CF02D20E030EF43E050E068
S113274060E070E0CB0149D3E62DF0E0EE0FFF1F0F
S1132750EE0FFF1FE35CF84FC080D180E280F3806E
S11327600F2EF0EFAF2EB12CF02D20E030EF43E030
S113277050E060E070E0CB0130D3BEC0E72DF0E064
S1132780EE0FFF1FEE0FFF1FE35CF84FC080D180F8
S1132790E280F3800F2EF8EC8F2E912CF02D0F2E6B
S11327A0F0EAAF2EB12CF02D06E02FEF3FEF43E01F
S11327B050E060E070E0CB0110D3E22DF0E0EE0FCA
S11327C0FF1FEE0FFF1FE35CF84FC080D180E28053
S11327D0F3800F2EF8ECAF2EB12CF02D2FEF3FEF3E
S11327E043E050E060E070E0CB01F7D2E62DF0E08A
S11327F0EE0FFF1FEE0FFF1FE35CF84FC080D18088
S1132800E280F3800F2EF0EFAF2EB12CF02D2FEFDE
S11328103FEF43E050E060E070E0CB01DED26CC0FB
S11328208091B40B9091B50BA091B60BB091B70BFE
S11328300A97A105B105C8F1E22DF0E0EE0FFF1FE4
S1132840EE0FFF1FE35CF84FC080D180E280F3807D
S11328500F2EF8EC8F2E912CF02D0F2EF8ECAF2EBE
S1132860B12CF02D06E02FEF3FEF43E050E060E0A5
S113287070E0CB01B2D2E62DF0E0EE0FFF1FEE0FB9
S1132880FF1FE35CF84FC080D180E280F3800F2EFD
S1132890F0EFAF2EB12CF02D2FEF3FEF43E050E0DF
S11328A060E070E0CB0199D227C08091B40B909185
S11328B0B50BA091B60BB091B70BE62DF0E0EE0F7F
S11328C0FF1FEE0FFF1FE35CF84FC080D180E28052
S11328D0F3800F2EF8EC8F2E912CF02D0F2EF0EFAD
S11328E0AF2EB12CF02D06E02FEF3FEF43E050E088
S11328F060E070E0CB0171D20F2EF8ECAF2EB12C5A
S1132900F02D0F2EF8E1CF2EDD24D394F02D0F2ED1
S1132910FBE6EF2EF2E0FF2EF02D02E02FEF3FEF6B
S113292043E050E060E070E0CB01F7D20F900F90ED
S11329300F900F900F90DF91CF911F910F91FF9007
S1132940EF90DF90CF90BF90AF909F908F907F904B
S11329506F905F904F903F902F9008958091C90B96
S1132960813031F460E070E0CB01FCD11092C90BEE
S11329708091010F8F3071F40E945A040E94EE017D
S11329808091010F813021F487E39EE00E94E807E3
S11329900E9490038091CB0B811109C08091FA01B0
S11329A0813009F057C017D91092FA010895809127
S11329B0CB0B813031F50E94A21D8EEF9FEFAFE16A
S11329C0B0E002C0DB01CA01AC01BD0141505109B4
S11329D061097109892B8A2B8B2BA1F75CD98EEFA6
S11329E09FEFAFE1B0E002C0DB01CA01AC01BD0161
S11329F04150510961097109892B8A2B8B2BA1F74D
S1132A0008958091CB0B823029F50E94AE008EEFA1
S1132A109FEFAFE1B0E002C0DB01CA01AC01BD0130
S1132A204150510961097109892B8A2B8B2BA1F71C
S1132A30CCDA8EEF9FEFAFE1B0E002C0DB01CA0158
S1132A40AC01BD014150510961097109892B8A2BDF
S1132A508B2BA1F70895CF93DF930E944E1D0E9404
S1132A60730182E09FE00E94D8076CD160E470E0BB
S1132A7081E00E945B1E8091CC0B9091CD0B209144
S1132A80CE0B9F938F931F922F93C5E3DBE0DF93CD
S1132A90CF930E94341F0E94FC038091CC0B909131
S1132AA0CD0B2091CE0B9F938F931F922F93DF9387
S1132AB0CF930E94341F8091010F2DB73EB7245F3E
S1132AC03F4F0FB6F8943EBF0FBE2DBF813021F4A7
S1132AD087E39EE00E94E8071092CB0B60E070E071
S1132AE0CB0140D10E94A21D0E94AE0037DF0E949C
S1132AF06105DF91CF9108950E944F1E85E08A956C
S1132B00F1F7000008950E94531E85E08A95F1F7BD
S1132B1000000895C49B03C088B38F7E88BB0895CA
S1132B20C49903C088B3806188BB0895EF92FF9273
S1132B301F93CF93DF93C82F162F7A01DDDFEADFCF
S1132B408C2F0E94571EECDFC0E0D0E007C0F701D5
S1132B50EC0FFD1F80810E94571E2196812F90E06B
S1132B60C817D907A4F3CFDFDF91CF911F91FF904E
S1132B70EF900895CF92DF92EF92FF920F931F93FD
S1132B80CF938B019C010027107F237033270F2ED6
S1132B90FAE03695279517950795FA95D1F7F02D14
S1132BA06B017C0140ECC4224FE0D422EE24FF24CC
S1132BB0689413F8F694E794D794C7941694D1F7CD
S1132BC0C62FCC0FCC0F802F0E94571E8C2D0E9435
S1132BD0571E8C2F0E94571ECF911F910F91FF906B
S1132BE0EF90DF90CF90089540E050E060E081E006
S1132BF09DDF2FEF8BED95E0215080409040E1F771
S1132C0000C00000089598C6089540E050E060E0D8
S1132C1089E28CDF2FEF82E597E0215080409040DD
S1132C20E1F700C00000089540E050E060E083E177
S1132C307DCF0895CF93DF9300D000D0CDB7DEB71A
S1132C4099838A837B836C83AE014F5F5F4F64E01B
S1132C508AE26CDF0F900F900F900F90DF91CF916D
S1132C600895CF93DF9300D000D0CDB7DEB799831A
S1132C708A837B836C83AE014F5F5F4F64E08BE29A
S1132C8055DF0F900F900F900F90DF91CF91089523
S1132C90CF93DF9300D000D000D0CDB7DEB79983B7
S1132CA08A837B836C835D834E83AE014F5F5F4F6A
S1132CB066E083E33BDF26960FB6F894DEBF0FBED3
S1132CC0CDBFDF91CF910895CF93DF9300D0CDB7DF
S1132CD0DEB799838A83AE014F5F5F4F62E087E37B
S1132CE025DF0F900F90DF91CF9108959DDF40E095
S1132CF050E060E471E080E090E0CADF6FE371E0EF
S1132D0080E090E097DF6FEE70E080E090E0A9DF74
S1132D1040E050E060E08CE209DF80E090E0D4CF56
S1132D200895E4CF089540E050E060E081E1FEDEE4
S1132D302FEF82E597E0215080409040E1F700C0FA
S1132D4000000895A0D72FEF8BED95E0215080402F
S1132D509040E1F700C0000047DF55DFE4DF55DFB6
S1132D60E0CF08958F929F92AF92BF92CF92DF925D
S1132D70EF92FF924B015C016FE371E080E090E021
S1132D8059DF6FEE70E080E090E06BDFB5DEC2DE0D
S1132D908CE28DD7C5DEC12CD12C760108C0C501CB
S1132DA0B401E8DE8FEFC81AD80AE80AF80AC11499
S1132DB08CE2D80681E0E806F10488F3A4DE40E062
S1132DC050E060E080E0B2DEFF90EF90DF90CF90C3
S1132DD0BF90AF909F908F9008953F924F925F92D3
S1132DE06F927F928F929F92AF92BF92CF92DF9217
S1132DF0EF92FF920F931F93CF93DF93CDB7DEB77C
S1132E0063970FB6F894DEBF0FBECDBF2B013C0114
S1132E10288B398B4A8B5B8B302EC5012FE0EBED71
S1132E20F7E0DE01119601900D922A95E1F7E1E0B9
S1132E30F0E0EC0FFD1FE00FF11D208130E0B50143
S1132E40620F731F8901080D191DF4DEB801C40156
S1132E5008DF52DE5FDE8CE22AD762DE912C3CC0B2
S1132E60A92CAA0CAA0CA90C22C0F801EE0FFF1F72
S1132E70EE0FFF1FE759F84F80819181A281B38142
S1132E808C219D21AE21BF21892B8A2B8B2B31F0E4
S1132E90688979898A899B896DDE03C0C301B2017F
S1132EA069DEB39401C0B12CB314F8F2A3940A2DD3
S1132EB010E0892D90E001969C01220F331F220F10
S1132EC0331F820F931F081719076CF3839401C0F3
S1132ED0812C831428F2939484E08915C8F713DEB7
S1132EE040E050E060E080E021DE63960FB6F894A5
S1132EF0DEBF0FBECDBFDF91CF911F910F91FF9029
S1132F00EF90DF90CF90BF90AF909F908F907F9085
S1132F106F905F904F903F9008952F923F924F9201
S1132F205F926F927F928F929F92AF92BF92CF9255
S1132F30DF92EF92FF920F931F93CF93DF93CDB75E
S1132F40DEB7C056D1090FB6F894DEBF0FBECDBFB1
S1132F502B013C01A0962CAF3DAF4EAF5FAFA097C5
S1132F60A1960FAFA1978FE0EBEDF7E0DE0111968C
S1132F7001900D928A95E1F7E1E0F0E0EC0FFD1F7E
S1132F80A1960FADA197E00FF11D808190E016018D
S1132F90280E391EA1014F5F5F4F9C01240F351F7E
S1132FA06A963FAF2EAF6A97B9016F5F7F4FDC011E
S1132FB0AA0DBB1D9D012F5F3F4F4C01820E931E36
S1132FC0F40131968C01060F171F8E0F9F1FD98AAB
S1132FD0C88ABB8AAA8A5D8B4C8BBF8AAE8A798FDA
S1132FE0688FBB8EAA8EDD8ECC8E3F8F2E8F59A319
S1132FF048A33BA32AA37DA36CA33FA32EA3D9A6D6
S1133000C8A6FBA7EAA75DA74CA7FFA7EEA779ABC5
S113301068ABFBABEAAB3DAA2CAABFABAEAB6A96DE
S11330202EAD3FAD6A9739AF28AFBBAFAAAF1DAF86
S11330300CAFBFAFAEAF22963FAE2EAE2297249612
S11330409FAE8EAE249726963FAF2EAF2697289636
S11330509FAE8EAE28972A961FAF0EAF2A972C9656
S11330609FAE8EAE2C972E963FAE2EAE2E976096C8
S11330709FAF8EAF609762963FAF2EAF6297649614
S11330809FAF8EAF649766961FAF0EAF6697689634
S11330909FAF8EAF6897B12C3B2CA0968CAC9DACA7
S11330A0AEACBFACA097A1960FADA19796C0C32CB0
S11330B0D12CCC0CDD1CF601EE0FFF1F81E090E05B
S11330C08C0F9D1FE80FF91F63A974A98785908948
S11330D0B1DDF6013196EE0FFF1F21E030E02C0F39
S11330E03D1FE20FF31F63A974A987859089B9DD99
S11330F003DD10DD8CE2DBD513DD69961FAE699725
S113310060C069962FAC6997220C220C69961FAD9A
S11331106997210E2CC0E32DF0E0EE0FFF1FEE0F98
S1133120FF1FEE0DFF1D4081518162817381F60105
S1133130EE0FFF1FEE0FFF1FE759F84F80819181BB
S1133140A281B38184239523A623B723892B8A2BB9
S11331508B2B21F0C501B4010DDD03C0C301B20105
S113316009DD1F5F01C010E01017A8F22394C22CE0
S1133170D12C69961FAD6997812F90E001969C012F
S1133180220F331F220F331F820F931FC816D90635
S113319054F36B961FAD6B971F5F6B961FAF6B97C6
S11331A003C06B961FAE6B976B961FAD6B97101792
S11331B008F4A7CF69961FAD69971F5F69961FAF83
S11331C0699769961FAD6997153058F39CDC40E008
S11331D050E060E080E0AADC339428E0231508F096
S11331E066CFC05ADF4F0FB6F894DEBF0FBECDBF17
S11331F0DF91CF911F910F91FF90EF90DF90CF90CF
S1133200BF90AF909F908F907F906F905F904F9002
S11332103F902F900895CF93DF9300D0CDB7DEB7C2
S113322091E099839A83813039F4AE014F5F5F4F07
S113323061E086E27BDC06C0AE014E5F5F4F61E079
S113324086E274DC0F900F90DF91CF910895CF93B5
S1133250DF9300D0CDB7DEB796E6998395E59A83E0
S1133260813039F4AE014F5F5F4F61E08AE35EDC89
S113327006C0AE014E5F5F4F61E08AE357DC0F90FA
S11332800F90DF91CF910895CF93DF9300D0CDB706
S1133290DEB7198298E29A83813039F4AE014F5F28
S11332A05F4F61E086E342DC06C0AE014E5F5F4FD4
S11332B061E086E33BDC0F900F90DF91CF9108959E
S11332C0CF93DF931F92CDB7DEB790E4998381301B
S11332D031F4AE014F5F5F4F61E080EB27DC0F906C
S11332E0DF91CF910895CF93DF9300D000D0CDB775
S11332F0DEB719829BE19A831B8298E19C8381301B
S113330039F4AE014F5F5F4F62E081EB0FDC06C022
S1133310AE014D5F5F4F62E081EB08DC0F900F90D0
S11333200F900F90DF91CF910895CF93DF9300D04A
S1133330CDB7DEB719829BE19A83813031F4AE01B7
S11333404F5F5F4F62E082EBF1DB0F900F90DF91F4
S1133350CF910895CF93DF9300D0CDB7DEB7198214
S11333609BE19A83813031F4AE014F5F5F4F62E09D
S113337083EBDCDB0F900F90DF91CF910895CF9317
S1133380DF9300D000D0CDB7DEB792E099839A8363
S11333909AE09B8394E19C83813031F4AE014F5FCA
S11333A05F4F64E085EBC2DB0F900F900F900F909E
S11333B0DF91CF910895CF93DF9300D000D000D058
S11333C0CDB7DEB79AE0998322E82A8397E29B83FC
S11333D038E03C832D839E83813039F4AE014F5F06
S11333E05F4F63E086EBA2DB06C0AE014C5F5F4F2C
S11333F063E086EB9BDB26960FB6F894DEBF0FBE28
S1133400CDBFDF91CF910895CF93DF9300D0CDB797
S1133410DEB792E099831A82813039F4AE014F5FAE
S11334205F4F61E082EF82DB06C0AE014E5F5F4F0B
S113343061E082EF7BDB0F900F90DF91CF910895D5
S1133440CF93DF93CDB7DEB72F970FB6F894DEBFD7
S11334500FBECDBF8FE0EAEEF7E0DE0111960190DA
S11334600D928A95E1F7AE014F5F5F4F6FE080EEFA
S11334705DDB2F960FB6F894DEBF0FBECDBFDF9194
S1133480CF910895CF93DF93CDB7DEB72F970FB6C3
S1133490F894DEBF0FBECDBF8FE0E9EFF7E0DE01A9
S11334A0119601900D928A95E1F7AE014F5F5F4F3F
S11334B06FE081EE3BDB2F960FB6F894DEBF0FBEB4
S11334C0CDBFDF91CF910895CF93DF9300D01F92AA
S11334D0CDB7DEB791E099831A821B82813031F433
S11334E0AE014F5F5F4F63E086EF20DB0F900F90DC
S11334F00F90DF91CF910895CF93DF931F92CDB7B3
S1133500DEB79CE09983813031F4AE014F5F5F4FA9
S113351061E088EB0BDB0F90DF91CF910895CF939F
S1133520DF931F92CDB7DEB79CEC9983813031F4E1
S1133530AE014F5F5F4F61E089EBF8DA0F90DF91E6
S1133540CF910895CF93DF931F92CDB7DEB794E068
S11335509983813031F4AE014F5F5F4F61E08AEBB4
S1133560E5DA0F90DF91CF910895CF93DF931F9207
S1133570CDB7DEB795E69983813031F4AE014F5F64
S11335805F4F61E08BEBD2DA0F90DF91CF9108951A
S1133590CF93DF931F92CDB7DEB794E49983813044
S11335A031F4AE014F5F5F4F61E08CEBBFDA0F90F7
S11335B0DF91CF910895CF93DF931F92CDB7DEB7FC
S11335C09FE09983813031F4AE014F5F5F4F61E03A
S11335D08EEBACDA0F90DF91CF910895CF93DF9308
S11335E01F92CDB7DEB71982813031F4AE014F5F3F
S11335F05F4F61E08FEB9ADA0F90DF91CF910895DE
S1133600CF93DF931F92CDB7DEB796E099838130D5
S113361031F4AE014F5F5F4F61E087EB87DA0F90C3
S1133620DF91CF910895CF93DF9300D0CDB7DEB76C
S113363091E2998393E29A83813039F4AE014F5F2A
S11336405F4F61E080EC72DA06C0AE014E5F5F4FFF
S113365061E080EC6BDA0F900F90DF91CF910895C9
S1133660CF93DF9300D0CDB7DEB790E199839A83EF
S1133670813039F4AE014F5F5F4F61E081EC56DA7F
S113368006C0AE014E5F5F4F61E081EC4FDA0F90F0
S11336900F90DF91CF910895CF93DF9300D000D0A6
S11336A0CDB7DEB791E399839CE39A839EE39B8332
S11336B098E29C83813039F4AE014F5F5F4F62E042
S11336C085EC34DA06C0AE014D5F5F4F62E085ECF5
S11336D02DDA0F900F900F900F90DF91CF910895F6
S11336E0CF93DF9300D0CDB7DEB790EC998396E803
S11336F09A83813039F4AE014F5F5F4F61E087EC0C
S113370015DA06C0AE014E5F5F4F61E087EC0EDA5A
S11337100F900F90DF91CF910895CF93DF93CDB7A2
S1133720DEB72A970FB6F894DEBF0FBECDBF95E083
S1133730E8E0F8E0DE01119601900D929A95E1F728
S113374095E0E8E0F8E0DE01169601900D929A9576
S1133750E1F7813039F4AE014F5F5F4F65E08BECE8
S1133760E5D906C0AE014A5F5F4F65E08BECDED958
S11337702A960FB6F894DEBF0FBECDBFDF91CF916E
S11337800895CF93DF9300D000D000D0CDB7DEB73B
S1133790198291E89A8390E39B831C8221EC2D8308
S11337A09E83813039F4AE014F5F5F4F63E08FEC4D
S11337B0BDD906C0AE014C5F5F4F63E08FECB6D954
S11337C026960FB6F894DEBF0FBECDBFDF91CF9122
S11337D00895CF93DF9300D01F92CDB7DEB794E85E
S11337E0998391E19A839AE79B83813031F4AE0106
S11337F04F5F5F4F63E088EE99D90F900F900F9061
S1133800DF91CF910895CF93DF9300D000D000D003
S1133810CDB7DEB794E8998391E19A839AE79B83C5
S113382095E89C831D8298E79E83813039F4AE012C
S11338304F5F5F4F63E089EE79D906C0AE014C5FFC
S11338405F4F63E089EE72D926960FB6F894DEBF17
S11338500FBECDBFDF91CF910895CF93DF9300D0FA
S113386000D0CDB7DEB796E699831A821B821C82FC
S1133870813039F4AE014F5F5F4F62E08AEE56D972
S113388006C0AE014D5F5F4F62E08AEE4FD90F90E4
S11338900F900F900F90DF91CF910895CF93DF9306
S11338A0CDB7DEB728970FB6F894DEBF0FBECDBFF5
S11338B095E5998391E09A8323E22B839C8394E694
S11338C09D8393E09E8392E19F8391E89887813062
S11338D039F4AE014F5F5F4F64E08DEE27D906C027
S11338E0AE014B5F5F4F64E08DEE20D928960FB692
S11338F0F894DEBF0FBECDBFDF91CF910895CF9373
S1133900DF9300D0CDB7DEB790E1998390E29A833C
S1133910813039F4AE014F5F5F4F61E087EF06D924
S113392006C0AE014E5F5F4F61E087EFFFD80F9096
S11339300F90DF91CF91089580E06DDC81E087DC0A
S113394080E0A2DC81E0BCDC80E0CDDC81E0EDDC69
S113395081E000DD81E013DD80E02DDD80E054DDD9
S11339606FDD90DD81E0B0DD81E04ADE81E0C4DD21
S113397081E0D5DD81E0E6DD81E0F7DD81E008DE90
S113398081E019DE81E02ADE80E04DDE80E068DE41
S113399080E082DE80E0A4DE80E0BFDE80E0F1DE55
S11339A080E017DF81E02FDF80E057DF80E076DF03
S11339B080E0A5CF0895FC0130E08FEF15C0AF0182
S11339C04F5F5F4F9081892720E00AC0882334F439
S11339D090E0880F991F91E3892701C0880F2F5F1A
S11339E02830A0F33F5FFA01361748F30895CF93C8
S11339F0C82F0E949D058C2F0E94C505CF91089564
S1133A00CF93C82F0E949D058C2F0E94DE05CF9175
S1133A100895CF93C82F892F0E94F8058C2F0E94F8
S1133A20F805CF910895EF92FF920F931F93CF93D0
S1133A30DF938C01D62F80E49BE09F938F9314D265
S1133A400F900F90C0E008C07801EC0EF11C0E94AA
S1133A501C06F7018083CF5F2C2F30E08D2F90E080
S1133A6001972817390784F38D2F90E00197E80117
S1133A70C80FD91F0E943C068883DF91CF911F9104
S1133A800F91FF90EF900895CF93DF93EC0184E4BE
S1133A90AEDFCE01BEDFDF91CF91089584E690E0E2
S1133AA00E946805811107C085E59BE09F938F9371
S1133AB0DBD10F900F9080E391E2E6DF2FEF80E7F8
S1133AC092E0215080409040E1F700C0000008954A
S1133AD08F929F92AF92BF92CF92DF92EF92FF921A
S1133AE049015A01AFEAB0E09B01AC0190D16C01ED
S1133AF0EE24FF248CE2C81AD108E108F108A4E6F8
S1133B00B0E0A501940183D1AA27BB270196A11D8A
S1133B10B11DC092D50BD092D60BE092D70BF09288
S1133B20D80B8093D10B9093D20BA093D30BB0936B
S1133B30D40BFF90EF90DF90CF90BF90AF909F9009
S1133B408F9008958F929F92AF92BF92CF92DF92FF
S1133B50EF92FF921F93CF93DF9300D000D000D059
S1133B60CDB7DEB784E443DF80E090EE52DF8FE32D
S1133B709CE90197F1F700C0000084E441DF66E0AE
S1133B80CE01019650DF0E945C061B8162E0CE01EB
S1133B90019611DF181307C01E8162E0CE0104965E
S1133BA00ADF181741F081E69BE09F938F935CD165
S1133BB00F900F9034C0C980D12CDC2CCC248A8186
S1133BC0C80ED11CE12CF12C8C80912C982C8824CB
S1133BD08D81880E911CA12CB12C1F921F929F9253
S1133BE08F921F921F92DF92CF928DE69BE09F935C
S1133BF08F933AD19D818C811F929F931F928F93B3
S1133C0085E99BE09F938F932FD1A5019401C70170
S1133C10B6015EDF0FB6F894DEBF0FBECDBF409194
S1133C20D10B5091D20B6091D30B7091D40B809136
S1133C30D50B9091D60BA091D70BB091D80B7F9355
S1133C406F935F934F93BF93AF939F938F938CE73F
S1133C509BE09F938F9308D10FB6F894DEBF0FBEFD
S1133C60CDBF26960FB6F894DEBF0FBECDBFDF9151
S1133C70CF911F91FF90EF90DF90CF90BF90AF90C6
S1133C809F908F90089587E187BB88B3816088BB3C
S1133C908DB180618DB98DB180648DB9089588B37B
S1133CA08E7F88BB089588B3816088BB08958FB9DF
S1133CB0779BFECF0895811102C015BC0895813011
S1133CC061F514BC8AEF83BD87B7806887BF85B56B
S1133CD0886085BD6130710521F485B5816085BD3D
S1133CE008956830710521F485B5826085BD089515
S1133CF06034710521F485B5836085BD089561152F
S1133D0081E0780721F485B5846085BD0895611547
S1133D10744019F485B5856085BD089510929000AE
S1133D2088E089B988E98AB908955D9BFECF8CB98A
S1133D3080E090E008955F9BFECF8CB190E0089501
S1133D4090919B0095FFFCCF80939C0080E090E0D5
S1133D50089580919B008823E4F780919C0090E073
S1133D6008951092980088E08093990088E18093E8
S1133D709A00ECE1FFE08DEC97E0938382839183DA
S1133D8080830895AA1BBB1B51E107C0AA1FBB1F58
S1133D90A617B70710F0A61BB70B881F991F5A95D3
S1133DA0A9F780959095BC01CD010895A1E21A2E42
S1133DB0AA1BBB1BFD010DC0AA1FBB1FEE1FFF1FCB
S1133DC0A217B307E407F50720F0A21BB30BE40B1B
S1133DD0F50B661F771F881F991F1A9469F7609562
S1133DE07095809590959B01AC01BD01CF0108951C
S1133DF0A29FB001B39FC001A39F700D811D112428
S1133E00911DB29F700D811D1124911D0895F0DF45
S1133E10A59F900DB49F900DA49F800D911D11241A
S1133E200895FB01DC018D91019080190110D9F3F3
S1133E30990B0895FB0151915523A9F0BF01DC01B1
S1133E404D9145174111E1F759F4CD01019000203E
S1133E5049F04D9140154111C9F3FB014111EFCFD8
S1133E6081E090E001970895CF93DF93CDB7DEB75B
S1133E70AE014B5F5F4FFA0161917191AF01809187
S1133E801E0F90911F0F08D0DF91CF91089560917C
S1133E901E0F70911F0F13C22F923F924F925F9289
S1133EA06F927F928F929F92AF92BF92CF92DF9246
S1133EB0EF92FF920F931F93CF93DF93CDB7DEB7AB
S1133EC02B970FB6F894DEBF0FBECDBF6C017B01FC
S1133ED08A01FC0117821682838181FFBFC1CE0152
S1133EE001963C01F6019381F70193FD859193FFBF
S1133EF081917F01882309F4ADC1853239F493FDA2
S1133F00859193FF81917F01853221F4B60190E080
S1133F10D6D1E8CF912C212C312CFFE1F315D8F028
S1133F208B3279F038F4803279F08332A1F4232D86
S1133F3020611DC08D3261F0803369F4232D21602E
S1133F4016C0832D8260382EE32DE4603E2E2AC0F5
S1133F50F32DF8601DC037FC2DC020ED280F2A304A
S1133F6040F08E32B9F436FC75C1232D2064322E14
S1133F7019C036FE06C08AE0989E200D1124922EA8
S1133F8011C0EAE02E9E200D1124222EF32DF062A2
S1133F903F2E08C08C3621F4832D8068382E02C051
S1133FA0883641F4F70193FD859193FF81917F0158
S1133FB08111B3CF982F9F7D9554933028F40C5FD3
S1133FC01F4F9FE399830DC0833631F0833771F01F
S1133FD0833509F055C020C0F801808189830E5FC4
S1133FE01F4F88248394912C530112C02801F2E0BE
S1133FF04F0E511CF801A080B18036FE03C0692D1C
S113400070E002C06FEF7FEFC5014ED14C01820119
S1134010F32DFF773F2E15C0280122E0420E511CDC
S1134020F801A080B18036FE03C0692D70E002C0A3
S11340306FEF7FEFC5012DD14C01F32DF0683F2EBA
S1134040820133FC19C0822D90E088169906A0F4F1
S1134050B60180E290E033D12A94F5CFF50137FC24
S1134060859137FE81915F01B60190E028D121103E
S11340702A9421E0821A91088114910479F7E1C00D
S1134080843611F0893639F5F80137FE07C06081AE
S11340907181828193810C5F1F4F08C0608171819F
S11340A0072E000C880B990B0E5F1F4FF32DFF7624
S11340B03F2E97FF09C090958095709561957F4F2D
S11340C08F4F9F4FF0683F2E2AE030E0A30133D199
S11340D0882E861844C0853731F4232D2F7EB22EC6
S11340E02AE030E025C0932D997FB92E8F36C1F098
S11340F018F4883579F0AEC0803719F0883721F08C
S1134100A9C0E92FE061BE2EB4FE0DC0FB2DF46002
S1134110BF2E09C034FE0AC0292F2660B22E06C065
S113412028E030E005C020E130E002C020E132E0C8
S1134130F801B7FE07C060817181828193810C5FB1
S11341401F4F06C06081718180E090E00E5F1F4FB9
S1134150A301F1D0882E8618FB2DFF773F2E36FE63
S11341600DC0232D2E7FA22E891458F434FE0BC0CB
S113417032FC09C0832D8E7EA82E05C0B82CA32C3A
S113418003C0B82C01C0B92CA4FE0FC0FE01E80D79
S1134190F11D8081803321F49A2D997EA92E09C0C6
S11341A0A2FE06C0B394B39404C08A2D867809F0A5
S11341B0B394A3FC10C0A0FE06C0B21480F4280C73
S11341C0922C9B180DC0B21458F4B60180E290E012
S11341D076D0B394F8CFB21418F42B1802C0982CEC
S11341E0212CA4FE0FC0B60180E390E068D0A2FEAB
S11341F016C0A1FC03C088E790E002C088E590E007
S1134200B6010CC08A2D867851F0A1FE02C08BE263
S113421001C080E2A7FC8DE2B60190E050D0891481
S113422030F4B60180E390E04AD09A94F8CF8A94AF
S1134230F301E80DF11D8081B60190E040D08110BA
S1134240F6CF222009F44ECEB60180E290E037D0BA
S11342502A94F7CFF6018681978102C08FEF9FEFF2
S11342602B960FB6F894DEBF0FBECDBFDF91CF9172
S11342701F910F91FF90EF90DF90CF90BF90AF9080
S11342809F908F907F906F905F904F903F902F9072
S11342900895FC010590615070400110D8F7809595
S11342A090958E0F9F1F0895FC01615070400190FE
S11342B00110D8F7809590958E0F9F1F08950F9346
S11342C01F93CF93DF93FB01238121FD03C08FEF65
S11342D09FEF2CC022FF16C046815781248135816F
S11342E04217530744F4A081B1819D012F5F3F4FD2
S11342F0318320838C93268137812F5F3F4F37830F
S1134300268314C08B01EC01FB010084F185E02DB0
S11343100995892BE1F6D80116968D919C911797F2
S1134320019617969C938E931697CE01DF91CF91A9
S11343301F910F910895FA01AA27283051F12031D5
S113434081F1E8946F936E7F6E5F7F4F8F4F9F4F25
S1134350AF4FB1E03ED0B4E03CD0670F781F891F67
S11343609A1FA11D680F791F8A1F911DA11D6A0F35
S1134370711D811D911DA11D20D009F468943F91E8
S11343802AE0269F11243019305D3193DEF6CF01E7
S11343900895462F4770405D4193B3E00FD0C9F7AD
S11343A0F6CF462F4F70405D4A3318F0495D31FD1A
S11343B04052419302D0A9F7EACFB4E0A69597956D
S11343C0879577956795BA95C9F700976105710543
S11343D008959B01AC010A2E06945795479537958D
S11343E02795BA95C9F7620F731F841F951FA01DE7
S10943F00895F894FFCFCC
S11343F6415400000000000000000000000000001E
S113440600000000000000000000000000000000A2
S11344160000000000000000000000000000000092
S1134426000041542B43574D4F44453D3100000095
S11344360000000000000000000000000000000072
S11344460000000000000000000000000000000062
S11344560000000041542B43574A41503D22EC9939
S113446680EC9DB4ED8C8CEC9DB43330303030222E
S11344762C22303130343435363539303822000088
S113448600000000000041542B434950534E545041
S11344964346473D312C392C22706F6F6C2E6E7457
S11344A6702E6F72672200000000000000000000FA
S11344B6000000000000000041542B434950534EB5
S11344C6545054494D453F000000000000000000D0
S11344D600000000000000000000000000000000D2
S11344E600000000000000000000014D6F6E005443
S11344F67565005765640054687500467269005313
S113450661740053756E004A616E00466562004D23
S1134516617200417072004D6179004A756E004AFD
S1134526756C0041756700536570004F6374004EE7
S11345366F7600446563000060420000801000004E
S113454610110018000000101111000000300010B6
S113455611000010020000840C000000007000002E
S113456600700000001000299D1000299D100021F4
S11345769C940001000000010000000700000000F8
S11345860070000000700000005001299D100029F1
S11345969D10003BC6180101000000010000001137
S11345A60000008049C90000604200001C000000B1
S11345B600000044084100000000000000000084E0
S11345C6600000001C0000182184001F0000000386
S11345D6000000180000001F104200030000000045
S11345E600C0018410F2010000700000008800443D
S11345F64500000080200004708000007C00000458
S11346061C200008238401E003F00162083100182D
S11346162184001F00000003000000180000001F92
S1134626104200030000000000C0018410F20100E3
S1134636007000102104011F00F001410811000060
S1134646000E0080900F0000800300082184010002
S113465600F00100003000102104011F00F00141A8
S113466608110080038C00E0830F00E0802100081D
S11346762184010000F00142083100180000019F66
S1134686A808000300100008700000847C400002A3
S11346961C0000184004011F7CF0010304110018DB
S11346A66184011F7CF001030C300000000E0080C1
S11346B6900F0000800300102104011F00F0014147
S11346C608110008618400007C0000420C210018D7
S11346D60000001F104200030000000000C0018417
S11346E610F2010000700008618400847C420042DC
S11346F60C2100187080011F7CF001031C30000897
S11347062184010000F0014208310000104200003B
S11347160000000084100084104200000000002104
S1134726BC100084030000E0010000210400001C0A
S11347360000001F4208018410420000000000101F
S1134746420801841042000000000010420801845F
S1134756104200180000001F00200043082100003A
S1134766700001427CF001001C10000821040100C5
S113477600F001420811002106FD05D905B5059191
S1134786056D054905981042001F000000A49452C7
S11347960018000C001F800F00848043000023844F
S11347A601E003F001E4007000102184001F000002
S11347B60041082100100000001FC4180101000078
S11347C6000000C00131C6F80100007000981042D4
S11347D6001F000000A494520018000C001F800F54
S11347E6008480430000238401E003F001E40070A8
S11347F600102104010F42F80080104200800300DB
S113480600E0870800A4904300186084011F7CF030
S113481601871C70000821840000608001841C72DA
S11348260008610000007C00008414420010420865
S1134836010000F00100007000981042001F000003
S113484600A494520018000C001F800F00848043BB
S11348560000238401E003F001E400700018218CB9
S1134866001F800F000380010008030000E00342DC
S113487600600000000000C0018410F20100007016
S113488600180000001F0000004308210080038C6C
S113489600E0830F00E0802100082184010000F07D
S11348A60142083100182184011F00F00143083138
S11348B60000000E0080900F000080030018000026
S11348C6001F0000004308210000008801C4ED0811
S11348D60000803000CC08F0010000F0018621F0D1
S11348E60100000000841042000000000000030FD5
S11348F600E0800F0040082100981082010721740F
S113490600427821000000E0012084F001420821E1
S113491600102104010F42F80080104200800300B9
S113492600E0870800A4904300186084011F7CF00F
S113493601871C7000107000011F7CF001011C101F
S1134946000821080000800F00428800001E0000B5
S1134956009F1042000F000000102184001F000079
S11349660041082100100000001F10420001000051
S1134976000000C0018410F201000070001C000059
S1134986015F88D300093D840098110000180200D5
S11349960028258400082184010000F00108007025
S11349A600102184001F00000041082100100000AF
S11349B6001F104200010000000000C0018410F234
S11349C6010000700044C51F012FBEF8003E84E0BC
S11349D6012FC6F8003FFCF0013FFC10003EF4E84E
S11349E60131FE18019F10F2019F906200B98C926A
S11349F6012184F00171D7180171D61C012EC6E875
S1134A06002FBE10002ED664012FBE14013E38F8C6
S1134A16009F10420031C6E800312A4500B5D6AAE7
S1134A260051111501511142001F11F1013FC6F841
S1134A3601E410F2011FFEF0011F7EF801297D84B6
S1134A46003F7CF8013FFCF8013F4608013FFEF8B1
S1134A56013F7EF8018400420001000000020000CC
S1134A660004000000080000001000000020000000
S1134A760040000000800000000001000000020069
S1134A8600000400000008000000100000002000E0
S1134A960000400000008000000000010000000249
S1134AA600000004000000080000001000000020C0
S1134AB6000000400000008000000000010000002B
S1134AC60300000000A01EA91E00000004090E1326
S1134AD6181D22272C31363B40450F312B0C0E086E
S1134AE64EF1370710030E0900000E1403110731A7
S1134AF6C148080F0C31360F392C0034020A0D0A4E
S1134B060D206D656173757265206D6F6465203A5D
S1134B162030782558200A0D0A0D00434F32203ADA
S1134B2620256C642C2054564F43203A20256C646F
S1134B360A0D00737461747573203A203078255811
S1134B460A0D004572726F72204944203A2030786B
S1134B5625580A0D004857204944204F4B0A0D009A
S1134B66415050207661696C64204F4B0A0D004613
S1134B7657204F4B0A0D007472616E736D69742071
S1134B863A2025730A0D00526563656976652074BB
S1134B96696D652073746172740A0D004F4B0031A0
S1134BA6393730002573006469666674696D65205B
S1134BB63A2025640A0D00455350383236362069AA
S1134BC66E6974204661696C0A0D0041542B534C7E
S1134BD64545503D3200736C656570206D6F6465A4
S1134BE620737461747573203A20004661696C20E1
S1134BF6746F20726563656976652074696D650AEC
S1134C060D0041542B534C4545503D3000537461BF
S1134C16727420636F6E646974696F6E2053756372
S1134C26636573730A0D00537461727420636F6E47
S1134C36646974696F6E204661696C0A0D00534C91
S1134C46412B57207472616E736D69747465642C9C
S1134C562041434B2072656365697665642053750C
S1134C6663636573730A0D00534C412B57207472AA
S1134C76616E736D69747465642C2041434B2072B4
S1134C8665636569766564204661696C0A0D00533F
S1134C964C412B52207472616E736D697474656431
S1134CA62C2041434B207265636569766564205305
S1134CB67563636573730A0D00534C412B5220745C
S1134CC672616E736D69747465642C2041434B2064
S1134CD67265636569766564204661696C0A0D00D0
S1134CE664617461207472616E736D697474656451
S1134CF62C2041434B2072656365697665642053B5
S1134D06756363657373203A20307825580A0D005D
S1134D1664617461207472616E736D697474656420
S1134D262C2041434B207265636569766564204691
S1134D3661696C203A20307825580A0D0064617444
S1134D46612072656365697665642C2041434B2056
S1134D5672657475726E65642053756363657373E7
S1134D660A0D006461746120726563656976656421
S1134D762C2041434B2072657475726E656420461F
S1134D8661696C0A0D00646174612072656365690A
S1134D967665642C204E41434B2072657475726EA1
S1134DA6656420537563636573730A0D00646174E7
S1134DB6612072656365697665642C204E41434BB8
S1134DC62072657475726E6564204661696C0A0D9D
S1134DD6006932632053746F700A0D007772697428
S1134DE6652061646472203A20307825580A0D00E3
S1134DF6726561642061646472203A2030782558B3
S1134E060A0D00494E543420696E746572727570C9
S1134E16740A0D00494E543520696E7465727275B4
S1134E2670740A0D000A0D25642C2025640A0D00F1
S1134E367265636569766520646174612072656173
S1134E4664790A0D004661696C20696E69740A0DFD
S1134E560043524338204661696C656400626566A6
S1134E666F726520636F6E766572742074656D70FB
S1134E76203A20256C642C2068756D69203A20251B
S1134E866C640A0D0068756D6920646174615F6203
S1134E9679746573203A20307825582C203078258B
S1074EA6580A0D0095
S9030000FC
