:020000040800F2
:1000000000500020B1160008751400087B14000889
:1000100081140008871400088D14000800000000F7
:100020000000000000000000000000009314000821
:100030009F14000800000000AB140008B71400086B
:10004000F9160008F9160008F9160008F916000854
:10005000F9160008F9160008F51400080D15000837
:10006000F9160008F9160008F9160008F916000834
:10007000F9160008F9160008F9160008F916000824
:10008000F9160008F9160008F9160008F916000814
:10009000F9160008F9160008F9160008F916000804
:1000A000F9160008F9160008F9160008F9160008F4
:1000B000F9160008C5140008F9160008F91600081A
:1000C000F9160008F9160008F9160008F9160008D4
:1000D000F9160008F9160008F9160008DD140008E2
:1000E000F9160008F9160008F916000800000000CB
:1000F0000000000000000000000000000000000000
:0C01000000000000000000005FF808F1A3
:1001100010B5054C237833B9044B13B10448AFF341
:1001200000800123237010BD981000200000000003
:1001300040D0000808B5034B1BB103490348AFF397
:10014000008008BD000000009C10002040D0000886
:1001500010F8012B11F8013B012A28BF9A42F7D071
:10016000D01A7047034613F8012B002AFBD1181A46
:100170000138704781F0004102E000BF83F0004386
:1001800030B54FEA41044FEA430594EA050F08BF32
:1001900090EA020F1FBF54EA000C55EA020C7FEAF6
:1001A000645C7FEA655C00F0E2804FEA5454D4EB73
:1001B0005555B8BF6D420CDD2C4480EA020281EA3D
:1001C000030382EA000083EA010180EA020281EA75
:1001D0000303362D88BF30BD11F0004F4FEA0131C7
:1001E0004FF4801C4CEA113102D0404261EB4101D6
:1001F00013F0004F4FEA03334CEA133302D052425C
:1002000063EB430394EA050F00F0A780A4F1010417
:10021000D5F1200E0DDB02FA0EFC22FA05F2801851
:1002200041F1000103FA0EF2801843FA05F3594137
:100230000EE0A5F120050EF1200E012A03FA0EFCB6
:1002400028BF4CF0020C43FA05F3C01851EBE371E0
:1002500001F0004507D54FF0000EDCF1000C7EEBFD
:1002600000006EEB0101B1F5801F1BD3B1F5001F3B
:100270000CD349085FEA30004FEA3C0C04F101045A
:100280004FEA445212F5800F80F09A80BCF1004F83
:1002900008BF5FEA500C50F1000041EB045141EA05
:1002A000050130BD5FEA4C0C404141EB0101013CCE
:1002B00028BFB1F5801FE9D291F0000F04BF0146BD
:1002C0000020B1FA81F308BF2033A3F10B03B3F18F
:1002D00020020CDA0C3208DD02F1140CC2F10C021F
:1002E00001FA0CF021FA02F10CE002F11402D8BF7D
:1002F000C2F1200C01FA02F120FA0CFCDCBF41EA49
:100300000C019040E41AA2BF01EB0451294330BD17
:100310006FEA04041F3C1CDA0C340EDC04F11404F4
:10032000C4F1200220FA04F001FA02F340EA0300CB
:1003300021FA04F345EA030130BDC4F10C04C4F111
:10034000200220FA02F001FA04F340EA03002946F1
:1003500030BD21FA04F0294630BD94F0000F83F43B
:10036000801306BF81F480110134013D4EE77FEA1E
:10037000645C18BF7FEA655C29D094EA050F08BF6A
:1003800090EA020F05D054EA000C04BF194610464B
:1003900030BD91EA030F1EBF0021002030BD5FEA8F
:1003A000545C05D14000494128BF41F0004130BDB7
:1003B00014F580043CBF01F5801130BD01F000450B
:1003C00045F0FE4141F470014FF0000030BD7FEA7E
:1003D000645C1ABF194610467FEA655C1CBF0B4679
:1003E000024650EA013406BF52EA033591EA030F90
:1003F00041F4002130BD00BF90F0000F04BF002188
:10040000704730B54FF4806404F132044FF00005BA
:100410004FF0000150E700BF90F0000F04BF002133
:10042000704730B54FF4806404F1320410F0004599
:1004300048BF40424FF000013EE700BF42004FEA94
:10044000E2014FEA31014FEA02701FBF12F07F4311
:1004500093F07F4F81F06051704732F07F4208BFC8
:10046000704793F07F4F04BF41F40021704730B5CF
:100470004FF4607401F0004521F000411CE700BF1B
:1004800050EA010208BF704730B54FF000050AE09E
:1004900050EA010208BF704730B511F0004502D59F
:1004A000404261EB41014FF4806404F132045FEAA1
:1004B000915C3FF4D8AE4FF003025FEADC0C18BF4A
:1004C00003325FEADC0C18BF033202EBDC02C2F13C
:1004D000200300FA03FC20FA02F001FA03FE40EACE
:1004E0000E0021FA02F11444BDE600BF70B54FF0D2
:1004F000FF0C4CF4E06C1CEA11541DBF1CEA1355B0
:1005000094EA0C0F95EA0C0F00F0DEF82C4481EA17
:10051000030621EA4C5123EA4C5350EA013518BF37
:1005200052EA033541F4801143F4801338D0A0FB24
:1005300002CE4FF00005E1FB02E506F00042E0FBD1
:1005400003E54FF00006E1FB03569CF0000F18BFD7
:100550004EF0010EA4F1FF04B6F5007F64F540747F
:1005600004D25FEA4E0E6D4146EB060642EAC62112
:1005700041EA55514FEAC52040EA5E504FEACE2E7F
:10058000B4F1FD0C88BFBCF5E06F1ED8BEF1004F82
:1005900008BF5FEA500E50F1000041EB045170BDFE
:1005A00006F0004646EA010140EA020081EA030142
:1005B000B4EB5C04C2BFD4EB0C0541EA045170BD3E
:1005C00041F480114FF0000E013C00F3AB8014F1B8
:1005D000360FDEBF002001F0004170BDC4F1000401
:1005E000203C35DA0C341BDC04F11404C4F1200582
:1005F00000FA05F320FA04F001FA05F240EA0200DD
:1006000001F0004221F0004110EBD37021FA04F612
:1006100042EB06015EEA430E08BF20EAD37070BDCC
:10062000C4F10C04C4F1200500FA04F320FA05F02B
:1006300001FA04F240EA020001F0004110EBD3702D
:1006400041F100015EEA430E08BF20EAD37070BD9D
:10065000C4F1200500FA05F24EEA020E20FA04F376
:1006600001FA05F243EA020321FA04F001F0004125
:1006700021FA04F220EA020000EBD3705EEA430E96
:1006800008BF20EAD37070BD94F0000F0FD101F0C5
:100690000046400041EB010111F4801F08BF013CFE
:1006A000F7D041EA060195F0000F18BF704703F03C
:1006B0000046520043EB030313F4801F08BF013DC3
:1006C000F7D043EA0603704794EA0C0F0CEA13557F
:1006D00018BF95EA0C0F0CD050EA410618BF52EA39
:1006E0004306D1D181EA030101F000414FF000003F
:1006F00070BD50EA410606BF1046194652EA43064D
:1007000019D094EA0C0F02D150EA013613D195EAC0
:100710000C0F05D152EA03361CBF104619460AD108
:1007200081EA030101F0004141F0FE4141F4700112
:100730004FF0000070BD41F0FE4141F4780170BD02
:1007400070B54FF0FF0C4CF4E06C1CEA11541DBF67
:100750001CEA135594EA0C0F95EA0C0F00F0A7F869
:10076000A4EB050481EA030E52EA03354FEA013196
:1007700000F088804FEA03334FF0805545EA1313A9
:1007800043EA12634FEA022245EA111545EA106571
:100790004FEA00260EF000419D4208BF964244F108
:1007A000FD0404F5407402D25B084FEA3202B61A27
:1007B00065EB03055B084FEA32024FF480104FF4FB
:1007C000002CB6EB020E75EB030E22BFB61A75466F
:1007D00040EA0C005B084FEA3202B6EB020E75EB02
:1007E000030E22BFB61A754640EA5C005B084FEA6A
:1007F0003202B6EB020E75EB030E22BFB61A754637
:1008000040EA9C005B084FEA3202B6EB020E75EB41
:10081000030E22BFB61A754640EADC0055EA060E02
:1008200018D04FEA051545EA16754FEA06164FEA45
:10083000C30343EA52734FEAC2025FEA1C1CC0D1F1
:1008400011F4801F0BD141EA00014FF000004FF07E
:10085000004CB6E711F4801F04BF01430020B4F13F
:10086000FD0C88BFBCF5E06F3FF6AFAEB5EB030CF7
:1008700004BFB6EB020C5FEA500C50F1000041EBF4
:10088000045170BD0EF0004E4EEA113114EB5C04C1
:10089000C2BFD4EB0C0541EA045170BD41F4801194
:1008A0004FF0000E013C90E645EA060E8DE60CEA9C
:1008B000135594EA0C0F08BF95EA0C0F3FF43BAFB9
:1008C00094EA0C0F0AD150EA01347FF434AF95EA70
:1008D0000C0F7FF425AF104619462CE795EA0C0F54
:1008E00006D152EA03353FF4FDAE1046194622E721
:1008F00050EA410618BF52EA43067FF4C5AE50EAFB
:1009000041047FF40DAF52EA43057FF4EBAE12E7EA
:100910004FF0FF3C06E000BF4FF0010C02E000BFCB
:100920004FF0010C4DF804CD4FEA410C7FEA6C5CAE
:100930004FEA430C18BF7FEA6C5C1BD001B050EA51
:10094000410C0CBF52EA430C91EA030F02BF90EA3C
:10095000020F0020704710F1000F91EA030F58BFFB
:10096000994208BF90422CBFD8176FEAE37040F05D
:10097000010070474FEA410C7FEA6C5C02D150EAFB
:10098000013C07D14FEA430C7FEA6C5CD6D152EAB6
:10099000033CD3D05DF8040B704700BF844610467B
:1009A00062468C461946634600E000BF01B5FFF77A
:1009B000B7FF002848BF10F1000F01BD4DF808ED4A
:1009C000FFF7F4FF0CBF012000205DF808FB00BF1B
:1009D0004DF808EDFFF7EAFF34BF012000205DF875
:1009E00008FB00BF4DF808EDFFF7E0FF94BF0120C2
:1009F00000205DF808FB00BF4DF808EDFFF7CEFFC3
:100A000094BF012000205DF808FB00BF4DF808ED01
:100A1000FFF7C4FF34BF012000205DF808FB00BFD2
:100A20004FEA410C7FEA6C5C02D150EA013C0AD1EA
:100A30004FEA430C7FEA6C5C02D152EA033C02D1DC
:100A40004FF0000070474FF0010070474FEA41023D
:100A500012F5001215D211D56FF47873B3EB625210
:100A600012D94FEAC12343F0004343EA505311F037
:100A7000004F23FA02F018BF404270474FF00000C9
:100A8000704750EA013005D111F0004008BF6FF007
:100A9000004070474FF00000704700BF53B94AB99B
:100AA000002908BF00281CBF4FF0FF314FF0FF3076
:100AB00000F06EB9ADF1080C6DE904CE00F006F857
:100AC000DDF804E0DDE9022304B070472DE9F047CA
:100AD000089E0D4604468E46002B40F083808A42D5
:100AE000174647D9B2FA82F34BB1C3F1200105FA98
:100AF00003FE20FA01F19F4041EA0E0E9C404FEAAE
:100B00001748BEFBF8FC1FFA87F908FB1CE20CFB38
:100B100009F0210C41EA024290420AD9BA180CF1BC
:100B2000FF3180F01881904240F21581ACF1020C47
:100B30003A44121AB2FBF8F008FB102200FB09F14C
:100B4000A4B244EA0244A14209D93C1900F1FF329F
:100B500080F00381A14240F2008102383C44641AD3
:100B6000002140EA0C401EB10022DC40C6E90042F0
:100B7000BDE8F08702B9FFDEB2FA82F3002B4FD155
:100B80008D1A01214FEA124E1FFA82F8B5FBFEFCC6
:100B90000EFB1C5508FB0CF0220C42EA0545A8424E
:100BA00007D97D190CF1FF3202D2A84200F2E98088
:100BB00094462D1AB5FBFEF00EFB105508FB00F80D
:100BC000A4B244EA0544A04507D93C1900F1FF321C
:100BD00002D2A04500F2D9801046A4EB080440EAF6
:100BE0000C40C0E78B4208D9002E00F0B1800021F4
:100BF000C6E900050846BDE8F087B3FA83F100298D
:100C00004BD1AB4202D3824200F2B980841A65EB29
:100C1000030301209E46002EAAD0C6E9004EA7E796
:100C20009F40C3F12002D1404FEA174EB1FBFEF0C6
:100C30001FFA87F80EFB101124FA02F29D4000FB08
:100C400008FC2A43150C45EA0145AC4504FA03F4B7
:100C500009D97D1900F1FF3180F08F80AC4540F259
:100C60008C8002383D44A5EB0C05B5FBFEF10EFB74
:100C7000115C01FB08F995B245EA0C45A94507D975
:100C80007D1901F1FF3274D2A94572D902393D4470
:100C9000A5EB090541EA004178E7C1F120078B4047
:100CA00022FA07FC4CEA030C25FA07F44FEA1C4E23
:100CB000B4FBFEF91FFA8CF80EFB194420FA07F377
:100CC00009FB08FA8D401D432B0C43EA0444A2455E
:100CD00002FA01F200FA01F309D91CEB040409F14C
:100CE000FF3048D2A24546D9A9F102096444A4EBD9
:100CF0000A04B4FBFEF00EFB104400FB08FAADB290
:100D000045EA0444A24508D91CEB040400F1FF3570
:100D10002DD2A2452BD90238644440EA0940A0FBF9
:100D20000289A4EB0A044C45C6464D4619D316D099
:100D30005EB1B3EB0E0264EB050404FA07F722FA86
:100D400001F31F43CC40C6E900740021BDE8F087E1
:100D5000314630460CE78C46EBE61046FFE643454D
:100D6000E6D2B8EB020E69EB0C050138E0E7284645
:100D7000D3E711468CE78146B9E7084673E7084692
:100D800049E7ACF1020C3D4413E702383C4424E748
:100D9000704700BF80B500AF00F0B0FC00F020F855
:100DA00000F092F900F05CF800F088F800F0BCF870
:100DB00000F02EF900F056F9074807F0FBFA074B50
:100DC0001B68586800230222002107F05BFB04F037
:100DD00093FE05F0D9FFFCE758D00008EC06002090
:100DE00080B590B000AF07F1180328220021184603
:100DF00007F0D8FA3B1D00221A605A609A60DA6048
:100E00001A610223BB610123BB621023FB62022330
:100E10007B630023BB634FF40023FB6307F11803DC
:100E2000184601F0D3FF0346002B01D000F0AEF9C5
:100E30000F237B600223BB600023FB6000233B6128
:100E400000237B613B1D0021184602F03FFA034658
:100E5000002B01D000F09AF900BF4037BD4680BD9D
:100E600080B500AF124B134A1A60114B124A5A60F8
:100E70000F4B00229A600E4B0022DA600C4B4FF4AD
:100E800080421A610A4B00225A61094B00229A6182
:100E9000074B0022DA61064B00221A62044800F078
:100EA000C7FF0346002B01D000F070F900BF80BDE2
:100EB0005811002000540040A086010080B500AF0A
:100EC000174B184A1A60164B4FF482725A60144B33
:100ED00000229A60124B0022DA60114B00221A6144
:100EE0000F4B00225A610E4B4FF400729A610C4B6B
:100EF0000822DA610A4B00221A62094B00225A6268
:100F0000074B00229A62064B0A22DA62044802F07A
:100F100077FB0346002B01D000F038F900BF80BDFD
:100F2000F41100200030014080B58EB000AF07F111
:100F3000280300221A605A609A60DA6007F12003E1
:100F400000221A605A603B1D00221A605A609A60A3
:100F5000DA601A615A619A612B4B2C4A1A602A4B4B
:100F600040225A60284B00229A60274B4FF4FA72B5
:100F7000DA60254B00221A61234B00229A61224835
:100F800002F0B2FD0346002B01D000F0FFF84FF451
:100F90008053BB6207F1280319461B4802F0ACFFDF
:100FA0000346002B01D000F0F1F8174802F0EBFDEA
:100FB0000346002B01D000F0E9F810233B62002328
:100FC0007B6207F1200319460F4803F0FDFA034640
:100FD000002B01D000F0DAF800237B600023BB6017
:100FE0000023FB6000237B613B1D0022194606485D
:100FF00002F02AFF0346002B01D000F0C7F800BF23
:101000003837BD4680BD00BFAC1100200004004051
:1010100080B500AF114B124A1A60104B4FF4E13209
:101020005A600E4B00229A600C4B0022DA600B4B88
:1010300000221A61094B0C225A61084B00229A6166
:10104000064B0022DA61054803F02EFB0346002B15
:1010500001D000F09BF800BF80BD00BF4C12002003
:101060000044004080B500AF154B164A1A60144B7F
:101070004FF4E1325A60124B00229A60104B00226A
:10108000DA600F4B00221A610D4B0C225A610C4B97
:1010900000229A610A4B0022DA61094803F004FB3E
:1010A0000346002B01D000F071F8054B1B68DA688D
:1010B000034B1B6842F02002DA6000BF80BD00BF16
:1010C000181100200048004080B588B000AF07F13B
:1010D000100300221A605A609A60DA60274B9B69FD
:1010E000264A43F010039361244B9B6903F01003DD
:1010F000FB60FB68214B9B69204A43F0040393612A
:101100001E4B9B6903F00403BB60BB681B4B9B69D0
:101110001A4A43F008039361184B9B6903F00803D4
:101120007B607B6800224FF44071154800F050FE50
:1011300003233B61134B7B610123BB6107F1100368
:101140001946114800F0C0FC4FF440733B61012385
:101150007B610023BB610223FB6107F11003194689
:10116000074800F0B1FC062000F01DFC072000F04D
:101170001AFC00BF2037BD4680BD00BF00100240F2
:1011800000080140000021100010014080B400AFB1
:1011900072B600BFFEE7000080B485B000AF154B0B
:1011A0009B69144A43F001039361124B9B6903F05E
:1011B0000103BB60BB680F4BDB690E4A43F08053F1
:1011C000D3610C4BDB6903F080537B607B680A4B77
:1011D0005B68FB60FB6823F0E063FB60FB6843F047
:1011E0008063FB60044AFB68536000BF1437BD4650
:1011F00080BC7047001002400000014080B588B0FC
:1012000000AF786007F1100300221A605A609A60FC
:10121000DA607B681B68154A934223D1144B9B69A3
:10122000134A43F008039361114B9B6903F00803D1
:10123000FB60FB68C0233B6112237B610323FB61DE
:1012400007F1100319460B4800F03EFC084BDB6920
:10125000074A43F40013D361054BDB6903F4001321
:10126000BB60BB6800BF2037BD4680BD0054004056
:1012700000100240000C014080B588B000AF7860DB
:1012800007F1100300221A605A609A60DA607B68E6
:101290001B681B4A93422FD11A4B9B69194A43F48E
:1012A00080539361174B9B6903F48053FB60FB6889
:1012B000144B9B69134A43F004039361114B9B69E0
:1012C00003F00403BB60BB68A0233B6102237B6186
:1012D0000323FB6107F1100319460B4800F0F4FBF0
:1012E00040233B6100237B610023BB6107F11003B6
:1012F0001946054800F0E8FB00BF2037BD4680BD19
:1013000000300140001002400008014080B584B068
:1013100000AF78607B681B680D4A934213D10D4B78
:10132000DB690C4A43F00203D3610A4BDB6903F02B
:101330000203FB60FB68002200211D2000F017FB68
:101340001D2000F030FB00BF1037BD4680BD00BF40
:10135000000400400010024080B58AB000AF786001
:1013600007F1180300221A605A609A60DA607B68FD
:101370001B683B4A934230D13A4BDB69394A43F40C
:101380000033D361374BDB6903F400337B617B6946
:10139000344B9B69334A43F004039361314B9B699F
:1013A00003F004033B613B690423BB610223FB613F
:1013B00003237B6207F1180319462B4800F084FBD6
:1013C0000823BB610023FB6100233B6207F1180384
:1013D0001946254800F078FB3EE07B681B68234AED
:1013E000934239D11F4BDB691E4A43F48023D361FA
:1013F0001C4BDB6903F48023FB60FB68194B9B6982
:10140000184A43F008039361164B9B6903F00803E5
:10141000BB60BB684FF48063BB610223FB610323A5
:101420007B6207F118031946114800F04DFB4FF499
:101430000063BB610023FB6100233B6207F11803DB
:1014400019460B4800F040FB00220021272000F045
:101450008EFA272000F0A7FA00BF2837BD4680BDCE
:1014600000440040001002400008014000480040D5
:10147000000C014080B400AFFEE780B400AFFEE78F
:1014800080B400AFFEE780B400AFFEE780B400AFE9
:10149000FEE780B400AF00BFBD4680BC704780B49B
:1014A00000AF00BFBD4680BC704780B400AF00BF36
:1014B000BD4680BC704780B500AF00F065F900BF45
:1014C00080BD000080B500AF034804F00DFA02486B
:1014D00002F0B1FB00BF80BDAC11002080B500AFB1
:1014E000034804F067F9024803F05CFA00BF80BDCE
:1014F0001811002080B500AF034806F05BFF012003
:1015000000F07EFC00BF80BD60D0000880B500AF59
:10151000034806F04FFF022000F072FC00BF80BDC0
:1015200074D0000880B400AF01231846BD4680BCCB
:10153000704780B582B000AF7860396006F008FF70
:10154000034616221A604FF0FF3318460837BD468F
:1015500080BD80B582B000AF78604FF0FF31786811
:10156000FFF7E7FFFEE780B586B000AFF860B9602F
:101570007A6000237B610AE006F0DEFE0146BB686C
:101580005A1CBA60CAB21A707B6901337B617A69EE
:101590007B689A42F0DB7B6818461837BD4680BDF1
:1015A00080B586B000AFF860B9607A6000237B61D7
:1015B00009E0BB685A1CBA601B78184606F0AEFEFC
:1015C0007B6901337B617A697B689A42F1DB7B68D6
:1015D00018461837BD4680BD80B483B000AF786030
:1015E0004FF0FF3318460C37BD4680BC704780B4BF
:1015F00083B000AF786039603B684FF400525A60A6
:10160000002318460C37BD4680BC704780B483B0B9
:1016100000AF7860012318460C37BD4680BC704788
:1016200080B485B000AFF860B9607A6000231846D6
:101630001437BD4680BC704780B586B000AF786077
:10164000144A154BD31A7B617B693B61134B1B68B2
:10165000002B02D1114B124A1A60104B1A687B689A
:1016600013443A699A4207D206F072FE03460C22EE
:101670001A604FF0FF3309E0084B1B68FB60074B13
:101680001A687B681344054A1360FB6818461837CC
:10169000BD4680BD0050002000040000B4100020B2
:1016A000F015002080B400AF00BFBD4680BC70477D
:1016B000002103E00B4B5B58435004310A480B4BAD
:1016C00042189A42F6D30A4A02E0002342F8043B49
:1016D000084B9A42F9D3FFF7E5FF06F03FFEFFF70C
:1016E00059FB704740D700080000002098100020E8
:1016F00098100020EC150020FEE7000080B500AF38
:10170000084B1B68074A43F010031360032000F0E6
:1017100023F9002000F008F8FFF73EFD00231846EB
:1017200080BD00BF0020024080B582B000AF78606D
:10173000124B1A68124B1B7819464FF47A73B3FB9D
:10174000F1F3B2FBF3F3184600F03BF90346002B2C
:1017500001D001230EE07B680F2B0AD800227968A4
:101760004FF0FF3000F003F9064A7B681360002356
:1017700000E0012318460837BD4680BD0000002068
:10178000080000200400002080B400AF054B1B7847
:101790001A46054B1B681344034A136000BFBD463D
:1017A00080BC7047080000208C12002080B400AF7D
:1017B000024B1B681846BD4680BC70478C12002047
:1017C00080B485B000AF78607B6803F00703FB60EE
:1017D0000C4BDB68BB60BA684FF6FF031340BB607D
:1017E000FB681A02BB68134343F0BF6343F4003342
:1017F000BB60044ABB68D36000BF1437BD4680BCE1
:10180000704700BF00ED00E080B400AF044BDB6820
:101810001B0A03F007031846BD4680BC704700BF93
:1018200000ED00E080B483B000AF0346FB7197F990
:101830000730002B0BDBFB7903F01F02064997F9F9
:1018400007305B09012000FA02F241F8232000BFB3
:101850000C37BD4680BC704700E100E080B483B027
:1018600000AF03463960FB7197F90730002B0ADBA4
:101870003B68DAB20C4997F907301201D2B20B4437
:1018800083F800230AE03B68DAB20849FB7903F0E9
:101890000F03043B1201D2B20B441A7600BF0C377F
:1018A000BD4680BC704700BF00E100E000ED00E0F5
:1018B00080B489B000AFF860B9607A60FB6803F06B
:1018C0000703FB61FB69C3F10703042B28BF042353
:1018D000BB61FB690433062B02D9FB69033B00E0C3
:1018E00000237B614FF0FF32BB6902FA03F3DA4356
:1018F000BB681A407B699A404FF0FF317B6901FA5F
:1019000003F3D9437B680B40134318462437BD4685
:1019100080BC704780B582B000AF78607B68013BC7
:10192000B3F1807F01D301230FE00A4A7B68013BBA
:1019300053600F214FF0FF30FFF790FF054B00225F
:101940009A60044B07221A60002318460837BD46E8
:1019500080BD00BF10E000E080B582B000AF7860CD
:101960007868FFF72DFF00BF0837BD4680BD80B502
:1019700086B000AF0346B9607A60FB7300237B61D9
:10198000FFF742FF78617A68B9687869FFF790FFDE
:10199000024697F90F3011461846FFF75FFF00BF68
:1019A0001837BD4680BD80B582B000AF0346FB71DD
:1019B00097F907301846FFF735FF00BF0837BD46D7
:1019C00080BD80B582B000AF78607868FFF7A2FF75
:1019D000034618460837BD4680BD000080B584B078
:1019E00000AF78600023FB737B6893F82130022BF3
:1019F00005D07B6804229A630123FB7351E07B6866
:101A00001B681A687B681B6822F00E021A607B68EC
:101A10001B681A687B681B6822F001021A607B68E9
:101A20001B68224A934229D07B681B68204A934254
:101A300022D07B681B681F4A93421AD07B681B68C0
:101A40001D4A934212D07B681B681C4A93420AD0FD
:101A50007B681B681A4A934202D14FF480130EE050
:101A60004FF080730BE04FF4803308E04FF4805365
:101A700005E04FF4807302E0102300E00123114AD7
:101A800053607B68012283F821207B68002283F861
:101A900020207B685B6B002B03D07B685B6B7868D6
:101AA0009847FB7B18461037BD4680BD08000240B2
:101AB0001C00024030000240440002405800024036
:101AC0006C0002400000024080B48BB000AF786030
:101AD000396000237B6200233B6269E101227B6A5B
:101AE00002FA03F3FB613B681B68FA691340BB61B0
:101AF000BA69FB699A4240F058813B685B689A4A30
:101B000093425ED0984A934275D8984A934258D0EF
:101B1000964A93426FD8964A934252D0944A93423F
:101B200069D8944A93424CD0924A934263D8924ADD
:101B3000934246D0904A93425DD8122B2AD8122B5A
:101B400059D801A252F823F0C31B00089D1B0008BE
:101B5000AF1B0008F11B0008F71B0008F71B00086B
:101B6000F71B0008F71B0008F71B0008F71B00080D
:101B7000F71B0008F71B0008F71B0008F71B0008FD
:101B8000F71B0008F71B0008F71B0008A51B00083F
:101B9000B91B0008794A934213D02CE03B68DB68FC
:101BA0003B6229E03B68DB6804333B6224E03B682E
:101BB000DB6808333B621FE03B68DB680C333B6249
:101BC0001AE03B689B68002B02D104233B6213E0C0
:101BD0003B689B68012B05D108233B627B68FA694F
:101BE0001A6109E008233B627B68FA695A6103E0E5
:101BF00000233B6200E000BFBB69FF2B01D87B687C
:101C000001E07B6804337B61BB69FF2B02D87B6AF0
:101C10009B0002E07B6A083B9B003B617B691A6882
:101C20000F213B6901FA03F3DB431A40396A3B6930
:101C300001FA03F31A437B691A603B685B6803F09F
:101C40008053002B00F0B1804D4B9B694C4A43F010
:101C5000010393614A4B9B6903F00103BB60BB68BE
:101C6000484A7B6A9B08023352F82330FB607B6A48
:101C700003F003039B000F2202FA03F3DB43FA682D
:101C80001340FB607B68404A934213D07B683F4A15
:101C900093420DD07B683E4A934207D07B683D4A11
:101CA000934201D1032306E0042304E0022302E06F
:101CB000012300E000237A6A02F0030292009340BD
:101CC000FA681343FB602F497B6A9B080233FA686A
:101CD00041F823203B685B6803F48033002B06D077
:101CE0002D4B1A682C49BB6913430B6006E02A4B45
:101CF0001A68BB69DB43284913400B603B685B688B
:101D000003F40033002B06D0234B5A682249BB69E9
:101D100013434B6006E0204B5A68BB69DB431E4906
:101D200013404B603B685B6803F48013002B06D0C4
:101D3000194B9A681849BB6913438B6006E0164B30
:101D40009A68BB69DB43144913408B603B685B684E
:101D500003F40013002B21D00F4BDA680E49BB6946
:101D60001343CB6021E000BF0000321000003110AF
:101D700000002210000021100000121000001110BD
:101D8000001002400000014000080140000C01402A
:101D90000010014000140140000401400B4BDA68C0
:101DA000BB69DB4309491340CB607B6A01337B622B
:101DB0003B681A687B6A22FA03F3002B7FF48EAE2D
:101DC00000BF00BF2C37BD4680BC704700040140F7
:101DD00080B483B000AF78600B467B8013467B7085
:101DE0007B78002B03D07A887B681A6103E07B88BC
:101DF0001A047B681A6100BF0C37BD4680BC70476F
:101E000080B582B000AF0346FB80084B5A69FB885F
:101E10001340002B06D0054AFB885361FB88184607
:101E200003F0FAFD00BF0837BD4680BD0004014045
:101E300080B584B000AF78607B68002B01D10123AE
:101E40002BE17B6893F83D30DBB2002B06D17B6839
:101E5000002283F83C207868FFF7D0F97B682422C1
:101E600083F83D207B681B681A687B681B6822F03A
:101E700001021A607B681B681A687B681B6842F461
:101E800000421A607B681B681A687B681B6822F432
:101E900000421A6001F06EFBF8607B685B68814A63
:101EA000934207D8FB68804A934294BF01230023E2
:101EB000DBB206E0FB687D4A934294BF0123002316
:101EC000DBB2002B01D00123E7E0FB68784AA2FBDC
:101ED00003239B0CBB607B681B685B6823F03F019E
:101EE0007B681B68BA680A435A607B681B681B6A78
:101EF00023F03F017B685B686A4A934202D8BB6863
:101F0000013309E0BB684FF4967202FB03F3694AA0
:101F1000A2FB03239B0901337A6812680B43136207
:101F20007B681B68DB6923F44F4222F0FF027B6869
:101F30005B685C498B4219D8FB68591E7B685B68FB
:101F40005B00B1FBF3F3591C40F6FC730B40002B14
:101F50000AD0FB68591E7B685B685B00B1FBF3F33A
:101F60000133C3F30B0351E004234FE07B689B680C
:101F7000002B11D1FB68581E7B6859680B465B002B
:101F80000B44B0FBF3F30133C3F30B03002B0CBF83
:101F900001230023DBB212E0FB68581E7B685968FE
:101FA0000B469B000B4499000B44B0FBF3F3013349
:101FB000C3F30B03002B0CBF01230023DBB2002B68
:101FC00001D0012322E07B689B68002B0ED1FB68C7
:101FD000581E7B6859680B465B000B44B0FBF3F35B
:101FE0000133C3F30B0343F400430FE0FB68581EB7
:101FF0007B6859680B469B000B4499000B44B0FB6F
:10200000F3F30133C3F30B0343F4404379680968E6
:102010001343CB617B681B681B6823F0C0017B689E
:10202000DA697B681B6A1A437B681B680A431A607B
:102030007B681B689B6823F4034323F0FF037A68E3
:1020400011697A68D26811437A6812680B43936009
:102050007B681B68DB6823F0FF017B685A697B683B
:102060009B691A437B681B680A43DA607B681B68BC
:102070001A687B681B6842F001021A607B680022C4
:102080001A647B68202283F83D207B6800221A6353
:102090007B68002283F83E20002318461037BD4697
:1020A00080BD00BFA08601007F841E00FF083D00A8
:1020B00083DE1B43D34D621080B588B002AFF86059
:1020C0007A601A460B467B8113463B81FFF76EFB15
:1020D0007861FB6893F83D30DBB2202B40F0E08064
:1020E0007B690093192301227049F86800F092FC83
:1020F0000346002B01D00223D3E0FB6893F83C3069
:10210000012B01D10223CCE0FB68012283F83C20A3
:10211000FB681B681B6803F00103012B07D0FB68F9
:102120001B681A68FB681B6842F001021A60FB68B2
:102130001B681A68FB681B6822F400621A60FB685F
:10214000212283F83D20FB68102283F83E20FB68A3
:1021500000221A64FB687A685A62FB683A895A85D9
:10216000FB685B8D9AB2FB681A85FB68504ADA629D
:1021700079897B693A6AF86800F0FCFA0346002B1B
:1021800001D001238DE000233B61FB681B685B6984
:102190003B61FB681B689B693B613B6966E07A6950
:1021A000396AF86800F00CFD0346002B0DD0FB687F
:1021B0001B6C042B07D1FB681B681A68FB681B6843
:1021C00042F400721A6001236BE0FB685B6A1A78C4
:1021D000FB681B681A61FB685B6A5A1CFB685A62E1
:1021E000FB685B8D9BB2013B9AB2FB685A85FB682A
:1021F0001B8D013B9AB2FB681A85FB681B685B6903
:1022000003F00403042B1BD1FB681B8D002B17D09C
:10221000FB685B6A1A78FB681B681A61FB685B6A7B
:102220005A1CFB685A62FB685B8D9BB2013B9AB2F9
:10223000FB685A85FB681B8D013B9AB2FB681A85C7
:102240007A69396AF86800F0FCFC0346002B0DD06F
:10225000FB681B6C042B07D1FB681B681A68FB68C2
:102260001B6842F400721A6001231AE0FB681B8DA0
:10227000002B94D1FB681B681A68FB681B6842F44A
:1022800000721A60FB68202283F83D20FB68002260
:1022900083F83E20FB68002283F83C20002300E006
:1022A000022318461837BD4680BD00BF020010004B
:1022B0000000FFFF80B58CB002AFF8607A601A466C
:1022C0000B467B8113463B8100233B62FFF76EFA8E
:1022D0007862FB6893F83D30DBB2202B40F03F8200
:1022E0007B6A0093192301227F49F86800F092FB72
:1022F0000346002B01D0022332E2FB6893F83C3006
:10230000012B01D102232BE2FB68012283F83C2040
:10231000FB681B681B6803F00103012B07D0FB68F7
:102320001B681A68FB681B6842F001021A60FB68B0
:102330001B681A68FB681B6822F400621A60FB685D
:10234000222283F83D20FB68102283F83E20FB68A0
:1023500000221A64FB687A685A62FB683A895A85D7
:10236000FB685B8D9AB2FB681A85FB685F4ADA628C
:1023700079897B6A3A6BF86800F07EFA0346002B95
:1023800001D00123ECE1FB681B8D002B13D100234E
:10239000FB61FB681B685B69FB61FB681B689B69F1
:1023A000FB61FB69FB681B681A68FB681B6842F4E9
:1023B00000721A60C0E1FB681B8D012B1ED1FB6807
:1023C0001B681A68FB681B6822F480621A6072B688
:1023D00000BF0023BB61FB681B685B69BB61FB68D6
:1023E0001B689B69BB61BB69FB681B681A68FB685B
:1023F0001B6842F400721A6062B635E0FB681B8D00
:10240000022B1ED1FB681B681A68FB681B6842F42C
:1024100000621A6072B600BF00237B61FB681B6814
:102420005B697B61FB681B689B697B617B69FB68FF
:102430001B681A68FB681B6822F480621A6062B627
:1024400012E0FB681B681A68FB681B6842F4806234
:102450001A6000233B61FB681B685B693B61FB689A
:102460001B689B693B613B6966E1FB681B8D032B25
:1024700000F21F81FB681B8D012B23D17A6A396B17
:10248000F86800F01FFC0346002B01D0012367E130
:10249000FB681B681A69FB685B6AD2B21A70FB683A
:1024A0005B6A5A1CFB685A62FB681B8D013B9AB23F
:1024B000FB681A85FB685B8D9BB2013B9AB2FB6897
:1024C0005A8539E1FB681B8D022B52D17B6A009340
:1024D0003B6B00220649F86800F09CFA0346002B8B
:1024E00008D001233CE100BF020010000000FFFF04
:1024F0000400010072B600BFFB681B681A68FB6825
:102500001B6842F400721A60FB681B681A69FB685A
:102510005B6AD2B21A70FB685B6A5A1CFB685A622B
:10252000FB681B8D013B9AB2FB681A85FB685B8DCB
:102530009BB2013B9AB2FB685A8562B600BFFB684A
:102540001B681A69FB685B6AD2B21A70FB685B6A27
:102550005A1CFB685A62FB681B8D013B9AB2FB68F0
:102560001A85FB685B8D9BB2013B9AB2FB685A856A
:10257000E2E07B6A00933B6B00227B49F86800F045
:1025800049FA0346002B01D00123E9E0FB681B68F0
:102590001A68FB681B6822F480621A6072B600BF7A
:1025A000FB681B681A69FB685B6AD2B21A70FB6829
:1025B0005B6A5A1CFB685A62FB681B8D013B9AB22E
:1025C000FB681A85FB685B8D9BB2013B9AB2FB6886
:1025D0005A85664B1B68DB08654AA2FB03231A0A6F
:1025E00013469B001344DA00D31A3B623B6A013B5B
:1025F0003B623B6A002B18D1FB6800221A63FB6820
:10260000202283F83D20FB68002283F83E20FB68EF
:102610001B6C43F02002FB681A6462B600BFFB68C3
:10262000002283F83C2001239AE0FB681B685B6969
:1026300003F00403042BD9D1FB681B681A68FB68FC
:102640001B6842F400721A60FB681B681A69FB6819
:102650005B6AD2B21A70FB685B6A5A1CFB685A62EA
:10266000FB681B8D013B9AB2FB681A85FB685B8D8A
:102670009BB2013B9AB2FB685A8562B600BFFB6809
:102680001B681A69FB685B6AD2B21A70FB685B6AE6
:102690005A1CFB685A62FB681B8D013B9AB2FB68AF
:1026A0001A85FB685B8D9BB2013B9AB2FB685A8529
:1026B00042E07A6A396BF86800F004FB0346002BAD
:1026C00001D001234CE0FB681B681A69FB685B6A58
:1026D000D2B21A70FB685B6A5A1CFB685A62FB68CC
:1026E0001B8D013B9AB2FB681A85FB685B8D9BB220
:1026F000013B9AB2FB685A85FB681B685B6903F073
:102700000403042B18D1FB681B681A69FB685B6A19
:10271000D2B21A70FB685B6A5A1CFB685A62FB688B
:102720001B8D013B9AB2FB681A85FB685B8D9BB2DF
:10273000013B9AB2FB685A85FB681B8D002B7FF426
:1027400094AEFB68202283F83D20FB68002283F8CA
:102750003E20FB68002283F83C20002300E0022397
:1027600018462837BD4680BD040001000000002047
:1027700089B5F81480B588B002AFF8607A603B6024
:102780000B467B81FB68DB6A7B617B69082B06D08B
:102790007B69012B03D07B6913F5803F08D1FB686F
:1027A0001B681A68FB681B6842F480721A600BE0B1
:1027B000FB681B6B122B07D1FB681B681A68FB6850
:1027C0001B6842F480721A603B6800937B680022A9
:1027D0004FF00111F86800F01DF90346002B0DD0F1
:1027E000FB681B681B6803F48073B3F5807F03D11B
:1027F000FB684FF400721A64032335E0FB681B6921
:10280000B3F5804F08D17B89DBB21A46FB681B68A1
:1028100002F0FE021A611BE07B89DB11DBB203F0E0
:102820000603DBB263F00F03DAB2FB681B681A61C0
:102830003B687A680E49F86800F043F90346002BBC
:1028400001D0012310E07B89DAB2FB681B681A61B2
:102850003B687A680749F86800F033F90346002BB3
:1028600001D0012300E0002318461837BD4680BD83
:10287000080001000200010080B588B002AFF860D6
:102880007A603B600B467B81FB68DB6A7B61FB689F
:102890001B681A68FB681B6842F480621A607B69D7
:1028A000082B06D07B69012B03D07B6913F5803F91
:1028B00008D1FB681B681A68FB681B6842F48072C9
:1028C0001A600BE0FB681B6B112B07D1FB681B68C0
:1028D0001A68FB681B6842F480721A603B680093B8
:1028E0007B6800224FF00111F86800F093F803466E
:1028F000002B0DD0FB681B681B6803F48073B3F5D5
:10290000807F03D1FB684FF400721A64032379E0DF
:10291000FB681B69B3F5804F08D17B89DBB243F0BC
:102920000103DAB2FB681B681A615FE07B89DB1187
:10293000DBB203F00603DBB263F00F03DAB2FB682D
:102940001B681A613B687A683049F86800F0B9F88A
:102950000346002B01D0012354E07B89DAB2FB68E7
:102960001B681A613B687A682949F86800F0A9F881
:102970000346002B01D0012344E000233B61FB68A8
:102980001B685B693B61FB681B689B693B613B693A
:10299000FB681B681A68FB681B6842F480721A6047
:1029A0003B6800937B6800224FF00111F86800F04B
:1029B00031F80346002B0DD0FB681B681B6803F43D
:1029C0008073B3F5807F03D1FB684FF400721A6403
:1029D000032317E07B89DB11DBB203F00603DBB2D4
:1029E00063F00E03DAB2FB681B681A613B687A6811
:1029F0000749F86800F065F80346002B01D0012371
:102A000000E0002318461837BD4680BD08000100CD
:102A10000200010080B584B000AFF860B9603B608F
:102A20001346FB7125E03B68B3F1FF3F21D0FEF771
:102A3000BDFE0246BB69D31A3A689A4202D33B688C
:102A4000002B16D1FB6800221A63FB68202283F852
:102A50003D20FB68002283F83E20FB681B6C43F09E
:102A60002002FB681A64FB68002283F83C200123E3
:102A700023E0BB681B0CDBB2012B0DD1FB681B688C
:102A80005B69DA43BB6813409BB2002B0CBF012388
:102A90000023DBB21A460CE0FB681B689B69DA4333
:102AA000BB6813409BB2002B0CBF01230023DBB299
:102AB0001A46FB799A42B6D0002318461037BD4615
:102AC00080BD80B584B000AFF860B9607A603B60CB
:102AD00051E0FB681B685B6903F48063B3F5806FAA
:102AE00023D1FB681B681A68FB681B6842F40072FC
:102AF0001A60FB681B686FF480625A61FB680022F1
:102B00001A63FB68202283F83D20FB68002283F8CB
:102B10003E20FB681B6C43F00402FB681A64FB68F0
:102B2000002283F83C20012346E07B68B3F1FF3F9D
:102B300021D0FEF73BFE02463B68D31A7A689A42E0
:102B400002D37B68002B16D1FB6800221A63FB6856
:102B5000202283F83D20FB68002283F83E20FB689A
:102B60001B6C43F02002FB681A64FB68002283F8A8
:102B70003C20012320E0BB681B0CDBB2012B0CD1F5
:102B8000FB681B685B69DA43BB6813409BB2002B90
:102B900014BF01230023DBB20BE0FB681B689B69B9
:102BA000DA43BB6813409BB2002B14BF0123002300
:102BB000DBB2002B8DD1002318461037BD4680BDF7
:102BC00080B584B000AFF860B9607A602DE0F86835
:102BD00000F0CEF80346002B01D001232DE0BB68A6
:102BE000B3F1FF3F21D0FEF7E1FD02467B68D31A27
:102BF000BA689A4202D3BB68002B16D1FB68002248
:102C00001A63FB68202283F83D20FB68002283F8CA
:102C10003E20FB681B6C43F02002FB681A64FB68D3
:102C2000002283F83C20012307E0FB681B685B69F6
:102C300003F08003802BCAD1002318461037BD460D
:102C400080BD80B584B000AFF860B9607A602DE0D7
:102C5000F86800F08DF80346002B01D001232DE029
:102C6000BB68B3F1FF3F21D0FEF7A0FD02467B68B1
:102C7000D31ABA689A4202D3BB68002B16D1FB68FC
:102C800000221A63FB68202283F83D20FB680022A3
:102C900083F83E20FB681B6C43F02002FB681A643B
:102CA000FB68002283F83C20012307E0FB681B68D7
:102CB0005B6903F00403042BCAD1002318461037C4
:102CC000BD4680BD80B584B000AFF860B9607A6061
:102CD00042E0FB681B685B6903F01003102B19D1FD
:102CE000FB681B686FF010025A61FB6800221A63D0
:102CF000FB68202283F83D20FB68002283F83E20F9
:102D0000FB681A6CFB681A64FB68002283F83C209D
:102D1000012329E0FEF74AFD02467B68D31ABA6810
:102D20009A4202D3BB68002B16D1FB6800221A63BB
:102D3000FB68202283F83D20FB68002283F83E20B8
:102D4000FB681B6C43F02002FB681A64FB680022DE
:102D500083F83C20012307E0FB681B685B6903F0F4
:102D60004003402BB5D1002318461037BD4680BD27
:102D700080B483B000AF78607B681B685B6903F444
:102D80008063B3F5806F1BD17B681B686FF4806232
:102D90005A617B6800221A637B68202283F83D20F9
:102DA0007B68002283F83E207B681B6C43F00402A2
:102DB0007B681A647B68002283F83C20012300E0D2
:102DC000002318460C37BD4680BC704780B586B0DE
:102DD00000AF78607B68002B01D101236CE27B6837
:102DE0001B6803F00103002B00F08780924B5B68A7
:102DF00003F00C03042B0CD08F4B5B6803F00C0327
:102E0000082B12D18C4B5B6803F48033B3F5803F01
:102E10000BD1894B1B6803F40033002B6CD07B680B
:102E20005B68002B68D1012346E27B685B68B3F5E1
:102E3000803F06D1804B1B687F4A43F48033136088
:102E40002EE07B685B68002B0CD17B4B1B687A4AB9
:102E500023F480331360784B1B68774A23F4802374
:102E600013601DE07B685B68B3F5A02F0CD1724B3B
:102E70001B68714A43F4802313606F4B1B686E4AD2
:102E800043F4803313600BE06B4B1B686A4A23F4F6
:102E900080331360684B1B68674A23F480231360F8
:102EA0007B685B68002B13D0FEF780FC386108E07C
:102EB000FEF77CFC02463B69D31A642B01D903233D
:102EC000FAE15D4B1B6803F40033002BF0D014E0F3
:102ED000FEF76CFC386108E0FEF768FC02463B69CF
:102EE000D31A642B01D90323E6E1534B1B6803F487
:102EF0000033002BF0D100E000BF7B681B6803F0BB
:102F00000203002B63D04C4B5B6803F00C03002BD7
:102F10000BD0494B5B6803F00C03082B1CD1464BCC
:102F20005B6803F48033002B16D1434B1B6803F01E
:102F30000203002B05D07B681B69012B01D0012304
:102F4000BAE13D4B1B6823F0F8027B685B69DB004C
:102F5000394913430B603AE07B681B69002B20D092
:102F6000364B01221A60FEF721FC386108E0FEF7BB
:102F70001DFC02463B69D31A022B01D903239BE1B6
:102F80002D4B1B6803F00203002BF0D02A4B1B686B
:102F900023F0F8027B685B69DB00274913430B6071
:102FA00015E0264B00221A60FEF700FC386108E0AD
:102FB000FEF7FCFB02463B69D31A022B01D903231F
:102FC0007AE11D4B1B6803F00203002BF0D17B68F4
:102FD0001B6803F00803002B3AD07B689B69002B29
:102FE00019D0174B01221A60FEF7E0FB386108E0A8
:102FF000FEF7DCFB02463B69D31A022B01D90323FF
:103000005AE10D4B5B6A03F00203002BF0D0012064
:1030100000F0D8FA1CE00A4B00221A60FEF7C6FB4B
:1030200038610FE0FEF7C2FB02463B69D31A022B60
:1030300008D9032340E100BF0010024000004242D3
:10304000800442429E4B5B6A03F00203002BE9D1ED
:103050007B681B6803F00403002B00F0A6800023AC
:10306000FB75974BDB6903F08053002B0DD1944B1C
:10307000DB69934A43F08053D361914BDB6903F0E2
:103080008053BB60BB680123FB758E4B1B6803F448
:103090008073002B18D18B4B1B688A4A43F48073D2
:1030A0001360FEF783FB386108E0FEF77FFB024602
:1030B0003B69D31A642B01D90323FDE0814B1B68C4
:1030C00003F48073002BF0D07B68DB68012B06D102
:1030D0007B4B1B6A7A4A43F0010313622DE07B6845
:1030E000DB68002B0CD1764B1B6A754A23F0010379
:1030F0001362734B1B6A724A23F0040313621CE0D1
:103100007B68DB68052B0CD16D4B1B6A6C4A43F066
:10311000040313626A4B1B6A694A43F0010313629A
:103120000BE0674B1B6A664A23F001031362644B92
:103130001B6A634A23F0040313627B68DB68002B7D
:1031400015D0FEF733FB38610AE0FEF72FFB02468D
:103150003B69D31A41F28832934201D90323ABE091
:10316000574B1B6A03F00203002BEED014E0FEF76E
:103170001DFB38610AE0FEF719FB02463B69D31AD2
:1031800041F28832934201D9032395E04C4B1B6AEC
:1031900003F00203002BEED1FB7D012B05D1484B40
:1031A000DB69474A23F08053D3617B68DB69002BDE
:1031B00000F08180424B5B6803F00C03082B61D068
:1031C0007B68DB69022B46D13F4B00221A60FEF779
:1031D000EDFA386108E0FEF7E9FA02463B69D31AD6
:1031E000022B01D9032367E0354B1B6803F0007302
:1031F000002BF0D17B681B6AB3F5803F08D1304BC0
:103200005B6823F400327B689B682D4913434B6055
:103210002B4B5B6823F474127B68196A7B685B6ACA
:103220000B43274913434B60274B01221A60FEF7DB
:10323000BDFA386108E0FEF7B9FA02463B69D31AD5
:10324000022B01D9032337E01D4B1B6803F00073E9
:10325000002BF0D02FE01C4B00221A60FEF7A6FADC
:10326000386108E0FEF7A2FA02463B69D31A022B46
:1032700001D9032320E0124B1B6803F00073002BDD
:10328000F0D118E07B68DB69012B01D1012313E049
:103290000B4B5B68FB60FB6803F480327B681B6A46
:1032A0009A4206D1FB6803F470127B685B6A9A420B
:1032B00001D0012300E0002318461837BD4680BD29
:1032C00000100240007000406000424280B584B0AF
:1032D00000AF786039607B68002B01D10123D0E01A
:1032E0006A4B1B6803F007033A689A4210D9674B90
:1032F0001B6823F0070265493B6813430B60634B6F
:103300001B6803F007033A689A4201D00123B8E032
:103310007B681B6803F00203002B20D07B681B68CE
:1033200003F00403002B05D0594B5B68584A43F463
:10333000E06353607B681B6803F00803002B05D033
:10334000534B5B68524A43F460535360504B5B6885
:1033500023F0F0027B689B684D4913434B607B6808
:103360001B6803F00103002B40D07B685B68012BD6
:1033700007D1474B1B6803F40033002B15D1012301
:103380007FE07B685B68022B07D1414B1B6803F031
:103390000073002B09D1012373E03D4B1B6803F040
:1033A0000203002B01D101236BE0394B5B6823F052
:1033B00003027B685B68364913434B60FEF7F6F9FE
:1033C000F8600AE0FEF7F2F90246FB68D31A41F210
:1033D0008832934201D9032353E02D4B5B6803F0FD
:1033E0000C027B685B689B009A42EBD1274B1B6801
:1033F00003F007033A689A4210D2244B1B6823F06B
:10340000070222493B6813430B60204B1B6803F003
:1034100007033A689A4201D0012332E07B681B68B7
:1034200003F00403002B08D0194B5B6823F4E0621F
:103430007B68DB68164913434B607B681B6803F0AD
:103440000803002B09D0124B5B6823F460527B68A1
:103450001B69DB000E4913434B6000F021F8024664
:103460000B4B5B681B0903F00F030A49CB5C22FA84
:1034700003F3094A1360094B1B681846FEF754F919
:10348000002318461037BD4680BD00BF0020024013
:103490000010024070D3000800000020040000204B
:1034A00090B48AB000AF2A4B3C1D0FCB84E80F00CC
:1034B00040F201233B800023FB610023BB6100231A
:1034C0007B6200237B6100233B62224B5B68FB61D4
:1034D000FB6903F00C03042B02D0082B03D02DE072
:1034E0001D4B3B622DE0FB699B0C03F00F0307F1C2
:1034F0002802134413F8243C7B61FB6903F48033F6
:10350000002B13D0134B5B685B0C03F0010307F136
:103510002802134413F8283CBB617B690E4A02FB66
:1035200003F2BB69B2FBF3F37B6204E07B690B4AF5
:1035300002FB03F37B627B6A3B6202E0064B3B6269
:1035400000BF3B6A18462837BD4690BC704700BF95
:1035500088D000080010024000127A0000093D00E7
:1035600080B400AF024B1B681846BD4680BC704754
:103570000000002080B500AFFFF7F2FF0246054BC8
:103580005B681B0A03F007030349CB5C22FA03F3D1
:10359000184680BD0010024080D3000880B500AFFF
:1035A000FFF7DEFF0246054B5B68DB0A03F007030B
:1035B0000349CB5C22FA03F3184680BD0010024099
:1035C00080D3000880B485B000AF78600A4B1B68D8
:1035D0000A4AA2FB03235B0A7A6802FB03F3FB603F
:1035E00000BFFB685A1EFA60002BF9D100BF00BF74
:1035F0001437BD4680BC704700000020D34D6210D8
:1036000080B582B000AF78607B68002B01D10123C8
:1036100076E07B685B6A002B08D17B685B68B3F55A
:10362000827F09D07B680022DA6105E07B68002296
:103630001A617B6800225A617B6800229A627B686B
:1036400093F85130DBB2002B06D17B68002283F85F
:1036500050207868FDF710FE7B68022283F8512025
:103660007B681B681A687B681B6822F040021A603E
:103670007B685B6803F482727B689B6803F4044395
:103680001A437B68DB6803F400631A437B681B6999
:1036900003F002031A437B685B6903F001031A43DA
:1036A0007B689B6903F400731A437B68DB6903F052
:1036B00038031A437B681B6A03F0800342EA030164
:1036C0007B689B6A03F400527B681B680A431A609C
:1036D0007B689B691A0C7B681B6802F004025A60C5
:1036E0007B681B68DA697B681B6822F40062DA6118
:1036F0007B6800225A657B68012283F851200023F1
:1037000018460837BD4680BD80B588B000AFF86068
:10371000B9603B601346FB800023FB77FB6893F89E
:103720005030012B01D1022326E1FB68012283F8EE
:103730005020FEF73BF8B861FB88FB82FB6893F8EA
:103740005130DBB2012B02D00223FB770BE1BB68C7
:10375000002B02D0FB88002B02D10123FB7702E172
:10376000FB68032283F85120FB6800225A65FB683E
:10377000BA681A63FB68FA889A86FB68FA88DA8660
:10378000FB6800229A63FB6800229A87FB6800228C
:10379000DA87FB6800225A64FB6800221A64FB681F
:1037A0009B68B3F5004F0FD1FB681B681A68FB6874
:1037B0001B6822F040021A60FB681B681A68FB68ED
:1037C0001B6842F480421A60FB681B681B6803F0A8
:1037D0004003402B07D0FB681B681A68FB681B6816
:1037E00042F040021A60FB68DB68B3F5006F4BD112
:1037F000FB685B68002B02D0FB8A012B3ED1FB6883
:103800001B6B1A88FB681B68DA60FB681B6B9A1CD1
:10381000FB681A63FB68DB8E9BB2013B9AB2FB68C4
:10382000DA862BE0FB681B689B6803F00203022B1F
:1038300012D1FB681B6B1A88FB681B68DA60FB6897
:103840001B6B9A1CFB681A63FB68DB8E9BB2013B07
:103850009AB2FB68DA8611E0FDF7A8FF0246BB6961
:10386000D31A3A689A4203D83B68B3F1FF3F02D1BA
:103870003B68002B02D10323FB7774E0FB68DB8EEF
:103880009BB2002BCED14CE0FB685B68002B02D0D2
:10389000FB8A012B40D1FB681A6BFB681B680C3359
:1038A00012781A70FB681B6B5A1CFB681A63FB6862
:1038B000DB8E9BB2013B9AB2FB68DA862CE0FB6898
:1038C0001B689B6803F00203022B13D1FB681A6B81
:1038D000FB681B680C3312781A70FB681B6B5A1C50
:1038E000FB681A63FB68DB8E9BB2013B9AB2FB68F4
:1038F000DA8611E0FDF75AFF0246BB69D31A3A682F
:103900009A4203D83B68B3F1FF3F02D13B68002BDA
:1039100002D10323FB7726E0FB68DB8E9BB2002BF2
:10392000CDD1BA693968F86800F0C0F80346002BB9
:1039300002D0FB6820225A65FB689B68002B0AD1E5
:1039400000233B61FB681B68DB683B61FB681B680D
:103950009B683B613B69FB685B6D002B02D00123D8
:10396000FB7700E000BFFB68012283F85120FB6871
:10397000002283F85020FB7F18462037BD4680BDCB
:1039800080B483B000AF78607B6893F85130DBB2CD
:1039900018460C37BD4680BC7047000080B588B023
:1039A00000AFF860B9603B601346FB71FDF7FEFEA7
:1039B0000246BB6A9B1A3A681344FB61FDF7F6FEA8
:1039C000B861394B1B685B011B0DFA6902FB03F3FD
:1039D0007B6154E03B68B3F1FF3F50D0FDF7E6FE5A
:1039E0000246BB69D31AFA699A4202D9FB69002BD5
:1039F0003DD1FB681B685A68FB681B6822F0E00237
:103A00005A60FB685B68B3F5827F11D1FB689B68E5
:103A1000B3F5004F04D0FB689B68B3F5806F07D106
:103A2000FB681B681A68FB681B6822F040021A607A
:103A3000FB689B6AB3F5005F0FD1FB681B681A68CF
:103A4000FB681B6822F400521A60FB681B681A6846
:103A5000FB681B6842F400521A60FB68012283F87D
:103A60005120FB68002283F85020032317E07B6974
:103A7000002B01D10023FB617B69013B7B61FB686B
:103A80001B689A68BB681340BA689A420CBF01234E
:103A90000023DBB21A46FB799A429BD100231846D9
:103AA0002037BD4680BD00BF0000002080B586B035
:103AB00002AFF860B9607A607B680093BB6800224F
:103AC0008021F868FFF76AFF0346002B07D0FB68E8
:103AD0005B6D43F02002FB685A65032300E000237E
:103AE00018461037BD4680BD80B582B000AF786003
:103AF0007B68002B01D1012341E07B6893F83D30C6
:103B0000DBB2002B06D17B68002283F83C2078686A
:103B1000FDF7FCFB7B68022283F83D207B681A6876
:103B20007B6804331946104600F0CEFA7B68012208
:103B300083F846207B68012283F83E207B680122BF
:103B400083F83F207B68012283F840207B680122B4
:103B500083F841207B68012283F842207B680122A0
:103B600083F843207B68012283F844207B6801228C
:103B700083F845207B68012283F83D200023184606
:103B80000837BD4680BD80B582B000AF78607B68E5
:103B9000002B01D1012341E07B6893F83D30DBB27B
:103BA000002B06D17B68002283F83C20786800F067
:103BB00039F87B68022283F83D207B681A687B68AD
:103BC00004331946104600F07FFA7B68012283F81F
:103BD00046207B68012283F83E207B68012283F81F
:103BE0003F207B68012283F840207B68012283F814
:103BF00041207B68012283F842207B68012283F800
:103C000043207B68012283F844207B68012283F8EB
:103C100045207B68012283F83D20002318460837A1
:103C2000BD4680BD80B483B000AF786000BF0C3764
:103C3000BD4680BC704780B582B000AF78607B68BD
:103C40001B681B6903F00203022B22D17B681B68EF
:103C5000DB6803F00203022B1BD17B681B686FF04B
:103C600002021A617B6801221A777B681B689B69D4
:103C700003F00303002B03D0786800F00AFA05E094
:103C8000786800F0FDF9786800F00CFA7B68002293
:103C90001A777B681B681B6903F00403042B22D18D
:103CA0007B681B68DB6803F00403042B1BD17B6873
:103CB0001B686FF004021A617B6802221A777B6826
:103CC0001B689B6903F44073002B03D0786800F0F5
:103CD000E0F905E0786800F0D3F9786800F0E2F9DF
:103CE0007B6800221A777B681B681B6903F0080356
:103CF000082B22D17B681B68DB6803F00803082BC4
:103D00001BD17B681B686FF008021A617B68042274
:103D10001A777B681B68DB6903F00303002B03D071
:103D2000786800F0B6F905E0786800F0A9F97868DD
:103D300000F0B8F97B6800221A777B681B681B6962
:103D400003F01003102B22D17B681B68DB6803F0A3
:103D50001003102B1BD17B681B686FF010021A61D7
:103D60007B6808221A777B681B68DB6903F4407361
:103D7000002B03D0786800F08CF905E0786800F03B
:103D80007FF9786800F08EF97B6800221A777B68EB
:103D90001B681B6903F00103012B0ED17B681B68B4
:103DA000DB6803F00103012B07D17B681B686FF010
:103DB00001021A61786801F097FD7B681B681B6936
:103DC00003F08003802B0ED17B681B68DB6803F057
:103DD0008003802B07D17B681B686FF080021A611B
:103DE000786800F058FC7B681B681B6903F040038F
:103DF000402B0ED17B681B68DB6803F04003402B2F
:103E000007D17B681B686FF040021A61786800F088
:103E100052F97B681B681B6903F02003202B0ED12D
:103E20007B681B68DB6803F02003202B07D17B68CD
:103E30001B686FF020021A61786800F023FC00BF55
:103E40000837BD4680BD000080B584B000AFF86083
:103E5000B9607A60FB6893F83C30012B01D10223F2
:103E600046E0FB68012283F83C207B680C2B39D8A4
:103E700001A252F823F000BFAD3E0008E53E000865
:103E8000E53E0008E53E0008BB3E0008E53E0008B0
:103E9000E53E0008E53E0008C93E0008E53E000892
:103EA000E53E0008E53E0008D73E0008FB681B68B9
:103EB000B968184600F06AF915E0FB681B68B96834
:103EC000184600F0C9F90EE0FB681B68B96818468F
:103ED00000F02CFA07E0FB681B68B968184600F090
:103EE0008FFA00E000BFFB68002283F83C2000232B
:103EF00018461037BD4680BD80B584B000AF7860ED
:103F000039607B6893F83C30012B01D10223B3E088
:103F10007B68012283F83C207B68022283F83D20E5
:103F20007B681B689B68FB60FB6823F07703FB6082
:103F3000FB6823F47F43FB607B681B68FA689A6028
:103F40003B681B68B3F5005F3ED0B3F5005F00F23D
:103F50008780B3F5805F00F08580B3F5805F7FD800
:103F6000702B1AD0702B7BD8602B50D0602B77D859
:103F7000502B3CD0502B73D8402B58D0402B6FD8AF
:103F8000302B64D0302B6BD8202B60D0202B67D8FF
:103F9000002B5CD0102B5AD062E07B6818683B681D
:103FA00099683B685A683B68DB6800F0EEFA7B680A
:103FB0001B689B68FB60FB6843F07703FB607B68D2
:103FC0001B68FA689A604EE07B6818683B689968DD
:103FD0003B685A683B68DB6800F0D7FA7B681B686F
:103FE0009A687B681B6842F480429A603BE07B6879
:103FF00018683B6859683B68DB681A4600F04EFA5F
:104000007B681B685021184600F0A5FA2BE07B68FE
:1040100018683B6859683B68DB681A4600F06CFA20
:104020007B681B686021184600F095FA1BE07B68EE
:1040300018683B6859683B68DB681A4600F02EFA3E
:104040007B681B684021184600F085FA0BE07B680E
:104050001A683B681B681946104600F07CFA02E0BB
:1040600000BF00E000BF7B68012283F83D207B6831
:10407000002283F83C20002318461037BD4680BD3F
:1040800080B483B000AF786000BF0C37BD4680BC01
:10409000704780B483B000AF786000BF0C37BD4676
:1040A00080BC704780B483B000AF786000BF0C372D
:1040B000BD4680BC704780B483B000AF786000BF5D
:1040C0000C37BD4680BC704780B485B000AF7860C7
:1040D00039607B681B68FB607B68294A93420BD080
:1040E0007B68B3F1804F07D07B68264A934203D0A8
:1040F0007B68254A934208D1FB6823F07003FB607C
:104100003B685B68FA681343FB607B681C4A934218
:104110000BD07B68B3F1804F07D07B68194A93427C
:1041200003D07B68184A934208D1FB6823F440739C
:10413000FB603B68DB68FA681343FB60FB6823F0B5
:1041400080023B685B691343FB607B68FA681A6016
:104150003B689A687B68DA623B681A687B689A6297
:104160007B68074A934203D13B681A697B681A63EC
:104170007B6801225A6100BF1437BD4680BC70477E
:10418000002C0140000400400008004080B487B0CB
:1041900000AF786039607B681B6A23F001027B689E
:1041A0001A627B681B6A7B617B685B683B617B682A
:1041B0009B69FB60FB6823F07003FB60FB6823F0E6
:1041C0000303FB603B681B68FA681343FB607B6971
:1041D00023F002037B613B689B687A6913437B6130
:1041E0007B681C4A93420CD17B6923F008037B61F6
:1041F0003B68DB687A6913437B617B6923F00403C6
:104200007B617B68134A934211D13B6923F480732D
:104210003B613B6923F400733B613B685B693A692E
:1042200013433B613B689B693A6913433B617B687D
:104230003A695A607B68FA689A613B685A687B6899
:104240005A637B687A691A6200BF1C37BD4680BC1E
:10425000704700BF002C014080B487B000AF786089
:1042600039607B681B6A23F010027B681A627B68E6
:104270001B6A7B617B685B683B617B689B69FB6059
:10428000FB6823F4E043FB60FB6823F44073FB60AE
:104290003B681B681B02FA681343FB607B6923F0D1
:1042A00020037B613B689B681B017A6913437B6138
:1042B0007B681D4A93420DD17B6923F080037B61AB
:1042C0003B68DB681B017A6913437B617B6923F0E0
:1042D00040037B617B68144A934213D13B6923F40A
:1042E00080633B613B6923F400633B613B685B692E
:1042F0009B003A6913433B613B689B699B003A69A9
:1043000013433B617B683A695A607B68FA689A613B
:104310003B685A687B689A637B687A691A6200BF57
:104320001C37BD4680BC7047002C014080B487B06C
:1043300000AF786039607B681B6A23F480727B6809
:104340001A627B681B6A7B617B685B683B617B6888
:10435000DB69FB60FB6823F07003FB60FB6823F004
:104360000303FB603B681B68FA681343FB607B69CF
:1043700023F400737B613B689B681B027A691343DB
:104380007B617B681D4A93420DD17B6923F40063F6
:104390007B613B68DB681B027A6913437B617B6945
:1043A00023F480637B617B68144A934213D13B6999
:1043B00023F480533B613B6923F400533B613B682A
:1043C0005B691B013A6913433B613B689B691B01B5
:1043D0003A6913433B617B683A695A607B68FA68C3
:1043E000DA613B685A687B68DA637B687A691A62CB
:1043F00000BF1C37BD4680BC704700BF002C014089
:1044000080B487B000AF786039607B681B6A23F4A2
:1044100080527B681A627B681B6A3B617B685B68C1
:104420007B617B68DB69FB60FB6823F4E043FB6036
:10443000FB6823F44073FB603B681B681B02FA684F
:104440001343FB603B6923F400533B613B689B686B
:104450001B033A6913433B617B680F4A934209D1BE
:104460007B6923F480437B613B685B699B017A69CC
:1044700013437B617B687A695A607B68FA68DA610A
:104480003B685A687B681A647B683A691A6200BFA5
:104490001C37BD4680BC7047002C014080B487B0FB
:1044A00000AFF860B9607A60FB681B6A7B61FB68EB
:1044B0001B6A23F00102FB681A62FB689B693B617F
:1044C0003B6923F0F0033B617B681B013A691343AE
:1044D0003B617B6923F00A037B617A69BB68134304
:1044E0007B61FB683A699A61FB687A691A6200BF6E
:1044F0001C37BD4680BC704780B487B000AFF86001
:10450000B9607A60FB681B6A23F01002FB681A62CC
:10451000FB689B697B61FB681B6A3B617B6923F4D9
:1045200070437B617B681B037A6913437B613B6942
:1045300023F0A0033B61BB681B013A6913433B6155
:10454000FB687A699A61FB683A691A6200BF1C3796
:10455000BD4680BC704780B485B000AF78603960DC
:104560007B689B68FB60FB6823F07003FB603A6824
:10457000FB68134343F00703FB607B68FA689A60AB
:1045800000BF1437BD4680BC704780B487B000AF11
:10459000F860B9607A603B60FB689B687B617B690F
:1045A00023F47F437B613B681A027B681A43BB6834
:1045B00013437A6913437B61FB687A699A6000BF91
:1045C0001C37BD4680BC704780B485B000AF7860B2
:1045D00039607B6893F83C30012B01D1022346E01F
:1045E0007B68012283F83C207B68022283F83D200F
:1045F0007B681B685B68FB607B681B689B68BB60B3
:10460000FB6823F07003FB603B681B68FA68134388
:10461000FB607B681B68FA685A607B681B68164AF7
:1046200093420ED07B681B68B3F1804F09D07B6842
:104630001B68124A934204D07B681B68104A93425D
:104640000CD1BB6823F08003BB603B685B68BA6831
:104650001343BB607B681B68BA689A607B68012261
:1046600083F83D207B68002283F83C200023184615
:104670001437BD4680BC7047002C01400004004048
:104680000008004080B483B000AF786000BF0C37F2
:10469000BD4680BC704780B483B000AF786000BF77
:1046A0000C37BD4680BC704780B582B000AF7860E3
:1046B0007B68002B01D101233FE07B6893F8393000
:1046C000DBB2002B06D17B68002283F838207868A3
:1046D000FCF742FE7B68242283F839207B681B6844
:1046E000DA687B681B6822F40052DA60786800F0B0
:1046F000EBFB7B681B681A697B681B6822F490429D
:104700001A617B681B685A697B681B6822F02A0261
:104710005A617B681B68DA687B681B6842F4005248
:10472000DA607B680022DA637B68202283F8392014
:104730007B68202283F83A20002318460837BD46BC
:1047400080BD80B58AB002AFF860B9603B601346A7
:10475000FB8000237B61FB6893F83930DBB2202BB0
:104760007CD1BB68002B02D0FB88002B01D1012338
:1047700075E0FB6893F83830012B01D102236EE01D
:10478000FB68012283F83820FB680022DA63FB68AB
:10479000212283F83920FDF709F87861FB68FA884F
:1047A0009A84FB68FA88DA84FB689B68B3F5805FBB
:1047B00008D1FB681B69002B04D10023FB61BB6897
:1047C000BB6103E0BB68FB610023BB61FB680022A7
:1047D00083F838202AE03B6800937B69002280211F
:1047E000F86800F00EFA0346002B01D0032336E0F0
:1047F000FB69002B0BD1BB691B881A46FB681B6841
:10480000C2F308025A60BB690233BB6107E0FB696F
:104810001A78FB681B685A60FB690133FB61FB680F
:10482000DB8C9BB2013B9AB2FB68DA84FB68DB8CC1
:104830009BB2002BCFD13B6800937B6900224021C3
:10484000F86800F0DEF90346002B01D0032306E0F0
:10485000FB68202283F83920002300E00223184659
:104860002037BD4680BD80B58AB002AFF860B96020
:104870003B601346FB8000237B61FB6893F83A3072
:10488000DBB2202B40F08980BB68002B02D0FB8874
:10489000002B01D1012381E0FB6893F83830012B14
:1048A00001D102237AE0FB68012283F83820FB68FB
:1048B0000022DA63FB68222283F83A20FCF776FFB5
:1048C0007861FB68FA889A85FB68FA88DA85FB6864
:1048D0009B68B3F5805F08D1FB681B69002B04D18E
:1048E0000023FB61BB68BB6103E0BB68FB61002385
:1048F000BB61FB68002283F8382043E03B680093EB
:104900007B6900222021F86800F07BF90346002B28
:1049100001D0032342E0FB69002B0CD1FB681B682C
:104920005B689BB2C3F308039AB2BB691A80BB6988
:104930000233BB611FE0FB689B68B3F5805F07D063
:10494000FB689B68002B0AD1FB681B69002B06D112
:10495000FB681B685B68DAB2FB691A7008E0FB68E9
:104960001B685B68DBB203F07F03DAB2FB691A7085
:10497000FB690133FB61FB68DB8D9BB2013B9AB2A3
:10498000FB68DA85FB68DB8D9BB2002BB6D1FB6838
:10499000202283F83A20002300E002231846203723
:1049A000BD4680BD80B588B000AF78607B681B686D
:1049B0001B68FB617B681B68DB68BB617B681B68ED
:1049C0005B697B6100233B610023FB60FB6903F0B3
:1049D0000F033B613B69002B0DD1FB6903F0200302
:1049E000002B08D0BB6903F02003002B03D07868AC
:1049F00000F0E9F9D0E03B69002B00F0B0807B6962
:104A000003F00103002B05D1BB6903F49073002B65
:104A100000F0A580FB6903F00103002B0AD0BB69FD
:104A200003F48073002B05D07B68DB6B43F001023D
:104A30007B68DA63FB6903F00403002B0AD07B690F
:104A400003F00103002B05D07B68DB6B43F002020F
:104A50007B68DA63FB6903F00203002B0AD07B69F1
:104A600003F00103002B05D07B68DB6B43F00402ED
:104A70007B68DA63FB6903F00803002B0FD0BB6986
:104A800003F02003002B04D17B6903F00103002B0A
:104A900005D07B68DB6B43F008027B68DA637B68D8
:104AA000DB6B002B77D0FB6903F02003002B07D0D2
:104AB000BB6903F02003002B02D0786800F083F973
:104AC0007B681B685B6903F04003002B14BF012364
:104AD0000023DBB2FB607B68DB6B03F00803002B79
:104AE00002D1FB68002B31D0786800F0D4F87B68E5
:104AF0001B685B6903F04003002B23D07B681B68B5
:104B00005A697B681B6822F040025A617B685B6BC4
:104B1000002B13D07B685B6B214A5A637B685B6B0D
:104B20001846FCF75BFF0346002B16D07B685B6BD7
:104B30005B6B7A68526B104698470EE0786800F01D
:104B40003AF80AE0786800F036F806E0786800F095
:104B500032F87B680022DA631DE000BF1BE0FB69CE
:104B600003F08003002B08D0BB6903F08003002B07
:104B700003D0786800F0C0F80EE0FB6903F0400352
:104B8000002B09D0BB6903F04003002B04D07868E8
:104B900000F001F900E000BF2037BD4680BD00BF36
:104BA000D14C000880B483B000AF786000BF0C37F0
:104BB000BD4680BC704780B483B000AF786000BF52
:104BC0000C37BD4680BC704780B485B000AF7860BC
:104BD0000023FB600023BB607B6893F83930DBB2B5
:104BE000FB607B6893F83A30DBB2BB60FB68DAB2FB
:104BF000BB68DBB21343DBB218461437BD4680BC3A
:104C0000704780B584B000AFF860B9603B60134670
:104C1000FB712CE0BB69B3F1FF3F28D0BB69002BCF
:104C200007D0FCF7C3FD02463B68D31ABA699A4223
:104C30001DD2FB681B68DA68FB681B6822F4D0721F
:104C4000DA60FB681B685A69FB681B6822F0010286
:104C50005A61FB68202283F83920FB68202283F800
:104C60003A20FB68002283F8382003230FE0FB681A
:104C70001B681A68BB681340BA689A420CBF0123CC
:104C80000023DBB21A46FB799A42C3D000231846B0
:104C90001037BD4680BD80B483B000AF78607B68BC
:104CA0001B68DA687B681B6822F49072DA607B68A4
:104CB0001B685A697B681B6822F001025A617B6895
:104CC000202283F83A2000BF0C37BD4680BC7047D5
:104CD00080B584B000AF78607B685B6AFB60FB687E
:104CE0000022DA85FB680022DA84F868FFF763FFA8
:104CF00000BF1037BD4680BD80B485B000AF78607E
:104D00007B6893F83930DBB2212B3ED17B689B68FE
:104D1000B3F5805F14D17B681B69002B10D17B68D1
:104D20001B6AFB60FB681B881A467B681B68C2F322
:104D300008025A607B681B6A9A1C7B681A6208E04A
:104D40007B681B6A591C7A6811621A787B681B6839
:104D50005A607B68DB8C9BB2013B9BB27A68194638
:104D6000D184002B0FD17B681B68DA687B681B68D5
:104D700022F08002DA607B681B68DA687B681B6857
:104D800042F04002DA60002300E0022318461437A4
:104D9000BD4680BC704780B582B000AF78607B684C
:104DA0001B68DA687B681B6822F04002DA607B6867
:104DB000202283F839207868FFF7F4FE0023184694
:104DC0000837BD4680BD80B584B000AF78607B6891
:104DD00093F83A30DBB2222B70D17B689B68B3F535
:104DE000805F17D17B681B69002B13D10023FB6008
:104DF0007B689B6ABB607B681B685B689BB2C3F384
:104E000008039AB2BB681A807B689B6A9A1C7B680D
:104E10009A6226E07B689B6AFB600023BB607B682C
:104E20009B68B3F5805F07D07B689B68002B0AD135
:104E30007B681B69002B06D17B681B685B68DAB254
:104E4000FB681A7008E07B681B685B68DBB203F0E4
:104E50007F03DAB2FB681A707B689B6A5A1C7B6816
:104E60009A627B68DB8D9BB2013B9BB27A681946E4
:104E7000D185002B20D17B681B68DA687B681B68B2
:104E800022F02002DA607B681B68DA687B681B68A6
:104E900022F48072DA607B681B685A697B681B6841
:104EA00022F001025A617B68202283F83A20786858
:104EB00000F080FC002302E0002300E002231846FB
:104EC0001037BD4680BD000080B584B000AF78606B
:104ED0007B681B681B6923F440517B68DA687B6838
:104EE0001B680A431A617B689A687B681B691A43CE
:104EF0007B685B691343BB607B681B68DB6823F4DA
:104F0000B05323F00C037A681268B9680B43D3607E
:104F10007B681B685B6923F440717B689A697B68D6
:104F20001B680A435A617B681B682C4A934203D171
:104F3000FEF734FBF86002E0FEF71CFBF860FA684D
:104F400013469B0013449A001A447B685B689B00DD
:104F5000B2FBF3F3224AA2FB03235B091901FA68AF
:104F600013469B0013449A001A447B685B689B00BD
:104F7000B2FBF3F21A4BA3FB02035B09642000FBB4
:104F800003F3D31A1B013233154AA2FB03235B0937
:104F900003F0F0031944FA6813469B0013449A0087
:104FA0001A447B685B689B00B2FBF3F20C4BA3FBDB
:104FB00002035B09642000FB03F3D31A1B013233A5
:104FC000074AA2FB03235B0903F00F027B681B68FF
:104FD0000A449A6000BF1037BD4680BD00380140CA
:104FE0001F85EB5180B500AF142003F0C7F800F027
:104FF000B1F8642003F0C2F800F0D1F80346812B29
:1050000024D1322003F0BAF8134803F0D3F900F0AA
:105010007FF8034603F01003102B1AD10F4803F05A
:10502000C9F900F0ADF8322003F0A8F800F070F8EC
:10503000034603F08003802B0BD1094803F0BAF933
:1050400000F012F8322003F099F802E0054803F06E
:1050500011FA00BF80BD00BF98D00008A4D000089E
:10506000B4D00008BCD0000880B582B000AF41F2D7
:105070000103BB803B1D022219465A2003F010F8A1
:1050800000BF0837BD4680BD80B584B000AF0223A5
:105090003B7100233B603B1D012219465A2002F060
:1050A000FFFF3B46042219465A2003F017F83B78CD
:1050B000DBB23B737B78DBB27B73BB78DBB23B72DA
:1050C000FB78DBB27B723B7BDBB21B027A7BD2B21A
:1050D00013431A460B4B1A603B7ADBB21B027A7AF7
:1050E000D2B213431A46084B1A60064B1B68064A95
:1050F00012681946054803F05DF900BF1037BD4638
:1051000080BD00BFB8100020BC100020E8D000080F
:1051100080B582B000AF00233B7100233B703B465B
:10512000012219465A2002F0BBFF3B1D01221946FD
:105130005A2002F0D3FF3B79DBB21946044803F052
:1051400039F93B79DBB218460837BD4680BD00BF50
:1051500000D1000880B582B000AF084A3B4692E813
:1051600003001860043319703B46052219465A2083
:1051700002F096FF00BF0837BD4680BD24D100086D
:1051800080B582B000AFF4233B713B1D012219466C
:105190005A2002F085FF00BF0837BD4680BD80B5AC
:1051A00082B000AF00233B7120233B703B460122BD
:1051B00019465A2002F074FF3B1D012219465A205D
:1051C00002F08CFF3B79DBB218460837BD4680BD44
:1051D00080B582B000AF204B7B60204B00221A705C
:1051E0001F4B00221A7000F0B5F90346012B16D1AF
:1051F0001C4B0F221A7000233B600CE03B686522B9
:1052000002FB03F3184A13441946184803F0D2F876
:105210003B6801333B603B68062BEFDD01E0002378
:1052200016E000BF7B685A1E7A60002BFAD100F0AE
:1052300045F80346012B07D10D490C4803F0BAF895
:1052400000F0EEF9012303E00A4803F0B3F800236D
:1052500018460837BD4680BDFEFF1F00C010002065
:10526000C1100020BD150020901200202CD1000894
:105270008C14002030D1000880B584B000AF786075
:105280000023FB7309E0FB7B7A6813441B78184604
:1052900003F00AF8FB7B0133FB73FB7B7A68134452
:1052A0001B78002BEFD10D2002F0FEFF0A2002F048
:1052B000FBFF00BF1037BD4680BD000080B582B047
:1052C00000AF0023FB71874B3B60874B0F221A70A6
:1052D00064220021854803F065F8854B00221A708E
:1052E000844B00221A70844B00221A803BE07D4BD5
:1052F0003B60824B00221A708148FFF7BDFF05E03A
:105300003B68013B3B603B68002B14D07D497748EC
:1053100003F070F90346002BF2D07B49734803F089
:1053200069F90346002BEBD17048FAF71BFF0346DF
:105330003C2BE5D100E000BF72496C4803F05AF9FC
:105340000346002B0CD07049684803F053F903461C
:10535000002B05D16548FAF705FF03463C2B05D025
:10536000FB790133FB71FB790A2BC0D1614B1B78B0
:10537000DAB2664B1A70604B1B889AB2644B1A8083
:105380005B4B1B78DBB20133DAB2594B1A70002346
:10539000FB7148E0534B3B60642200215D4803F001
:1053A00001F8564B00221A705548FFF765FF05E0DB
:1053B0003B68013B3B603B68002B14D0514955488A
:1053C00003F018F90346002BF2D04F49514803F07F
:1053D00011F90346002BEBD14E48FAF7C3FE034602
:1053E0003C2BE5D100E000BF46494A4803F002F9F2
:1053F0000346002B14D04449464803F0FBF803460B
:10540000002B0DD14348FAF7ADFE03463C2B07D1E4
:1054100040493648FAF79CFE0346002B07D102E0CC
:10542000FB790133FB71FB790A2BB3D100E000BF9C
:10543000304B1B78DAB2384B1A702F4B1B889AB25C
:10544000364B1A80FB790A2B02D1274B00221A70A7
:10545000254B1B78DBB2002B2ED02F4B1B78DBB2F9
:105460009BB21A465201D21A92001344DB009AB240
:105470002A4B1B889BB213449AB2244B1B78DBB295
:105480009BB219464901C91A89000B44DB0099B245
:105490001F4B1B889BB20B449BB2D31A9AB2204B72
:1054A0001A801F4B1B889AB2134B1A80114B002293
:1054B0001A700D4B01221A700C491A4802F07AFF3B
:1054C0001449184802F076FF154B1B889BB2194609
:1054D000154802F06FFF044B1B78DBB21846083703
:1054E000BD4680BDFDFF2F00BD1500208C1400209F
:1054F000C2100020D2100020D4100020C3100020C1
:10550000D400002048D100084CD10008C810002069
:10551000C6100020F1140020CC100020CA1000207A
:10552000CE1000202CD1000854D1000880B582B0E4
:1055300000AF78600649786803F05CF80346002BFA
:1055400001D0012300E0002318460837BD4680BD86
:1055500048D1000880B582B000AF0023FB7048E05E
:10556000294B7B60294B00221A70294B1B78DBB238
:105570001A46322303FB02F3264A13441846FFF768
:105580007BFE09E07B68013B7B607B68002B03D1DD
:10559000FB780133FB700EE01D4B1B78DBB21A4623
:1055A000652303FB02F31C4A13441846FFF7BEFFB2
:1055B0000346002BE6D0164B1B78DBB21A46652358
:1055C00003FB02F3144A13441846FFF7AFFF0346E8
:1055D000012B06D10E4B1B78DBB20133DAB20C4B38
:1055E0001A70FB78142B04D10C4802F0E3FE002360
:1055F00005E0074B1B78DBB2042BB1D90123184619
:105600000837BD4680BD00BFFDFF2F00C110002040
:10561000C01000200C0000209012002068D100086B
:1056200080B582B000AF0023FB70294B0E221A70A8
:1056300064220021274802F0B5FE37E0264B7B604C
:10564000264B00221A702648FFF716FE09E07B68F9
:10565000013B7B607B68002B03D1FB780133FB703F
:105660000CE01C48FFF762FF0346002BEFD01C49FB
:10567000184802F0BFFF0346002BE8D01548FFF79B
:1056800055FF0346012B0AD11549124802F0B2FF1B
:105690000346002B03D00E4B01221A7009E0FB7861
:1056A0000A2B03D10A4B00221A7002E0FB780A2B66
:1056B000C4D10C4802F07EFE06490B4802F07AFE87
:1056C000034B1B78DBB218460837BD4680BD00BFD0
:1056D000BD15002058150020FEFF1F00C41000203B
:1056E0007CD1000888D100082CD1000880B582B098
:1056F00000AF0023FB70284B0E221A706422002199
:10570000264802F04FFE35E0254B7B60254B0022FA
:105710001A702548FFF7B0FD05E07B68013B7B6010
:105720007B68002B0DD01D48FFF700FF0346002BC0
:10573000F3D01D49194802F05DFF0346002BECD061
:1057400000E000BF1548FFF7F1FE0346012B0AD128
:105750001549124802F04EFF0346002B03D00E4BB2
:1057600001221A7009E0FB780A2B03D10A4B0022B0
:105770001A7002E0FB780A2BC6D10C4802F01AFE20
:1057800006490B4802F016FE034B1B78DBB21846A5
:105790000837BD4680BD00BFBD150020581500204C
:1057A000FEFF1F00C4100020A0D1000888D100080F
:1057B0002CD10008B0B582B000AF7860414B1B78A7
:1057C000404B1B78DBB2042B28D83E4B1B78DBB256
:1057D0001D463D4B1B78DBB25A1CD1B23A4A1170C0
:1057E0001C4602F07FFD03461946384A652303FB39
:1057F00005F3134423440A461A70324B1B78DBB27C
:105800001846314B1B78DBB21946304A652303FB3F
:1058100000F313440B4400221A704EE02C4B1B780B
:10582000DBB20F2B28D12B4B1B78DBB21D462A4B4A
:105830001B78DBB25A1CD1B2274A11701C4602F009
:1058400051FD03461946254A652303FB05F313441E
:1058500023440A461A701F4B1B78DBB218461E4BB6
:105860001B78DBB219461D4A652303FB00F3134482
:105870000B4400221A7020E0154B1B78DBB20E2B74
:1058800015D1174B1B78DBB25A1CD1B2144A1170D8
:105890001C4602F027FD03461A46124B1A55104BC0
:1058A0001B78DBB21A460F4B0021995405E002F039
:1058B00019FD0346184602F08FFD00BF0837BD46AC
:1058C000B0BD00BFC0100020C11000209012002009
:1058D000BD150020C2100020C31000208C14002031
:1058E000C41000205815002080B483B000AF786049
:1058F000414B1B889BB201339AB23F4B1A803E4BFF
:105900001B889BB2B3F57A7F15D33C4B1B78DBB277
:105910000133DAB2394B1A70374B1B889BB2384AC5
:10592000A2FB031292094FF47A7101FB02F29B1A57
:105930009AB2314B1A80314B1B78DBB23C2B55D1DC
:10594000304B1B78DBB20133DAB22E4B1A702B4B83
:1059500000221A702B4B1B78DBB23C2B11D12A4B47
:105960001B78DBB20133DAB2274B1A70254B0022C9
:105970001A70254B1B78DBB2182B02D1224B002268
:105980001A70204B1B78DBB2204AA2FB0323DB08F2
:10599000DAB21F4B9A701B4B1B78DAB21B4BA3FB7E
:1059A0000213D9080B469B000B445B00D31ADAB2F2
:1059B000174BDA70144B1B78DBB2144AA2FB03239B
:1059C000DB08DAB2124B1A710F4B1B78DAB20F4BAD
:1059D000A3FB0213D9080B469B000B445B00D31AB0
:1059E000DAB20B4B5A710B4B01221A7000BF0C3705
:1059F000BD4680BC704700BFD4100020D2100020EC
:105A0000D34D6210D1100020D0100020CDCCCCCCD2
:105A1000C01500208406002080B582B000AF034688
:105A2000FB80642002F0AAFB274B1B889BB26433E7
:105A30009AB2254B1A80FB88012B28D1234B1B7867
:105A4000DBB20133DAB2214B1A70204B1B78DAB289
:105A50001F4BA3FB021359080B465B000B44D31AE0
:105A6000DAB21A4B1A70194B1B78DAB2194B1A704A
:105A7000194B01221A70174B1B78DBB2002B02D195
:105A8000164B01221A70164802F094FC17E0FB88AE
:105A9000022B14D1134B00221A70134B00221A70E0
:105AA000124B00221A70084B00221A80104B0F2252
:105AB0001A700A4B01221A700E4802F07BFC00BFDC
:105AC0000837BD4680BD00BFD4100020D71000208D
:105AD000ABAAAAAAD6100020D81000208406002065
